{"contracts/MagicTree.sol":{"MagicTree":{"abi":[{"inputs":[],"stateMutability":"nonpayable","type":"constructor"},{"anonymous":false,"inputs":[{"indexed":true,"internalType":"address","name":"owner","type":"address"},{"indexed":false,"internalType":"uint256","name":"points","type":"uint256"},{"indexed":false,"internalType":"uint256","name":"timestamp","type":"uint256"}],"name":"FruitDecomposed","type":"event"},{"anonymous":false,"inputs":[{"indexed":true,"internalType":"address","name":"owner","type":"address"},{"indexed":false,"internalType":"uint256","name":"fruitCount","type":"uint256"},{"indexed":false,"internalType":"uint256","name":"timestamp","type":"uint256"}],"name":"FruitHarvested","type":"event"},{"anonymous":false,"inputs":[{"indexed":true,"internalType":"address","name":"owner","type":"address"},{"indexed":false,"internalType":"uint256","name":"count","type":"uint256"},{"indexed":false,"internalType":"uint256","name":"timestamp","type":"uint256"}],"name":"TreeFertilized","type":"event"},{"anonymous":false,"inputs":[{"indexed":true,"internalType":"address","name":"owner","type":"address"},{"indexed":false,"internalType":"uint256","name":"timestamp","type":"uint256"}],"name":"TreeMinted","type":"event"},{"inputs":[],"name":"COOLDOWN_TIME","outputs":[{"internalType":"uint256","name":"","type":"uint256"}],"stateMutability":"view","type":"function"},{"inputs":[],"name":"FERTILIZE_FOR_FRUIT","outputs":[{"internalType":"uint256","name":"","type":"uint256"}],"stateMutability":"view","type":"function"},{"inputs":[],"name":"MAX_DAILY_FERTILIZE","outputs":[{"internalType":"uint256","name":"","type":"uint256"}],"stateMutability":"view","type":"function"},{"inputs":[],"name":"MINT_PRICE","outputs":[{"internalType":"uint256","name":"","type":"uint256"}],"stateMutability":"view","type":"function"},{"inputs":[{"internalType":"uint256","name":"","type":"uint256"}],"name":"allPlayers","outputs":[{"internalType":"address","name":"","type":"address"}],"stateMutability":"view","type":"function"},{"inputs":[],"name":"fertilize","outputs":[],"stateMutability":"nonpayable","type":"function"},{"inputs":[],"name":"getBalance","outputs":[{"internalType":"uint256","name":"","type":"uint256"}],"stateMutability":"view","type":"function"},{"inputs":[{"internalType":"uint256","name":"limit","type":"uint256"}],"name":"getLeaderboard","outputs":[{"internalType":"address[]","name":"addresses","type":"address[]"},{"internalType":"uint256[]","name":"points","type":"uint256[]"},{"internalType":"uint256[]","name":"fertilizeCounts","type":"uint256[]"}],"stateMutability":"view","type":"function"},{"inputs":[],"name":"getTotalPlayers","outputs":[{"internalType":"uint256","name":"","type":"uint256"}],"stateMutability":"view","type":"function"},{"inputs":[{"internalType":"address","name":"user","type":"address"}],"name":"getTreeInfo","outputs":[{"internalType":"bool","name":"exists","type":"bool"},{"internalType":"uint256","name":"fertilizeCount","type":"uint256"},{"internalType":"uint256","name":"lastActionTime","type":"uint256"},{"internalType":"uint256","name":"fruits","type":"uint256"},{"internalType":"uint256","name":"points","type":"uint256"},{"internalType":"uint256","name":"cooldownRemaining","type":"uint256"},{"internalType":"uint256","name":"dailyFertilizeCount","type":"uint256"},{"internalType":"uint256","name":"dailyFertilizeRemaining","type":"uint256"}],"stateMutability":"view","type":"function"},{"inputs":[],"name":"harvestFruit","outputs":[],"stateMutability":"nonpayable","type":"function"},{"inputs":[],"name":"mintTree","outputs":[],"stateMutability":"payable","type":"function"},{"inputs":[],"name":"owner","outputs":[{"internalType":"address","name":"","type":"address"}],"stateMutability":"view","type":"function"},{"inputs":[{"internalType":"address","name":"","type":"address"}],"name":"trees","outputs":[{"internalType":"bool","name":"exists","type":"bool"},{"internalType":"uint256","name":"fertilizeCount","type":"uint256"},{"internalType":"uint256","name":"lastActionTime","type":"uint256"},{"internalType":"uint256","name":"fruits","type":"uint256"},{"internalType":"uint256","name":"points","type":"uint256"},{"internalType":"uint256","name":"dailyFertilizeCount","type":"uint256"},{"internalType":"uint256","name":"lastFertilizeDate","type":"uint256"}],"stateMutability":"view","type":"function"},{"inputs":[],"name":"withdraw","outputs":[],"stateMutability":"nonpayable","type":"function"}],"evm":{"bytecode":{"linkReferences":{},"object":"608060405234801561001057600080fd5b50600380546001600160a01b0319163317905561124e806100326000396000f3fe6080604052600436106100e85760003560e01c806361c05ab61161008a578063977745eb11610059578063977745eb14610282578063a34b46fe14610297578063c002d23d146102c6578063ed85b9f5146102e157600080fd5b806361c05ab6146102305780637d2632451461023857806381a9fdf81461024d5780638da5cb5b1461026257600080fd5b80633ccfd60b116100c65780633ccfd60b1461015e5780634529cae7146101735780634f37ba99146101885780635005d3b61461019d57600080fd5b80630544ce5e146100ed57806312065fe01461012a5780632f249cbd14610147575b600080fd5b3480156100f957600080fd5b5061010d610108366004611049565b61033e565b6040516001600160a01b0390911681526020015b60405180910390f35b34801561013657600080fd5b50475b604051908152602001610121565b34801561015357600080fd5b5061015c610368565b005b34801561016a57600080fd5b5061015c61048e565b34801561017f57600080fd5b50600154610139565b34801561019457600080fd5b50610139600581565b3480156101a957600080fd5b506101f96101b8366004611062565b600060208190529081526040902080546001820154600283015460038401546004850154600586015460069096015460ff9095169593949293919290919087565b6040805197151588526020880196909652948601939093526060850191909152608084015260a083015260c082015260e001610121565b61015c610524565b34801561024457600080fd5b50610139603c81565b34801561025957600080fd5b50610139601e81565b34801561026e57600080fd5b5060035461010d906001600160a01b031681565b34801561028e57600080fd5b5061015c6106e6565b3480156102a357600080fd5b506102b76102b2366004611049565b6108ff565b604051610121939291906110cd565b3480156102d257600080fd5b50610139662386f26fc1000081565b3480156102ed57600080fd5b506103016102fc366004611062565b610e6d565b6040805198151589526020890197909752958701949094526060860192909252608085015260a084015260c083015260e082015261010001610121565b6001818154811061034e57600080fd5b6000918252602090912001546001600160a01b0316905081565b336000908152602081905260409020805460ff166103c35760405162461bcd60e51b8152602060048201526013602482015272151c995948191bd95cc81b9bdd08195e1a5cdd606a1b60448201526064015b60405180910390fd5b600081600301541161040e5760405162461bcd60e51b8152602060048201526014602482015273139bc8199c9d5a5d1cc81d1bc81a185c9d995cdd60621b60448201526064016103ba565b60038101805490600061042083611158565b9190505550600061043460646101f4610fc1565b90508082600401600082825461044a919061116f565b90915550506040805182815242602082015233917f3124920cf24a2e7bedce16517d7c77221df59e26c302f70f69f1d678e341b96991015b60405180910390a25050565b6003546001600160a01b031633146104e85760405162461bcd60e51b815260206004820152601760248201527f4f6e6c79206f776e65722063616e20776974686472617700000000000000000060448201526064016103ba565b6003546040516001600160a01b03909116904780156108fc02916000818181858888f19350505050158015610521573d6000803e3d6000fd5b50565b3360009081526020819052604090205460ff161561057a5760405162461bcd60e51b81526020600482015260136024820152725472656520616c72656164792065786973747360681b60448201526064016103ba565b662386f26fc1000034146105c75760405162461bcd60e51b8152602060048201526014602482015273125b98dbdc9c9958dd0811551208185b5bdd5b9d60621b60448201526064016103ba565b6040805160e081018252600180825260006020808401828152848601838152606086018481526080870185815260a0880186815260c089018781523388528787528a882099518a5460ff1916901515178a559451978901979097559151600280890191909155905160038801559051600487015593516005860155516006909401939093559152205460ff166106af576001805480820182557fb10e2d527612073b26eecdfd717e6a320cf44b4afac2b0732d9fcbe2b7fa0cf60180546001600160a01b031916339081179091556000908152600260205260409020805460ff191690911790555b60405142815233907f9acab985beb5a8e9dee68b1ae2706bb0ac978d66e7160b89b4d405f097ffe5139060200160405180910390a2565b336000908152602081905260409020805460ff1661073c5760405162461bcd60e51b8152602060048201526013602482015272151c995948191bd95cc81b9bdd08195e1a5cdd606a1b60448201526064016103ba565b6002810154158061075d5750603c8160020154610759919061116f565b4210155b6107a15760405162461bcd60e51b815260206004820152601560248201527410dbdbdb191bdddb881b9bdd08199a5b9a5cda1959605a1b60448201526064016103ba565b60006107b06201518042611198565b9050808260060154146107cc5760006005830155600682018190555b601e8260050154106108205760405162461bcd60e51b815260206004820152601d60248201527f4461696c792066657274696c697a65206c696d6974207265616368656400000060448201526064016103ba565b600182018054906000610832836111ac565b9091555050600582018054906000610849836111ac565b90915550504260028301556001820154610865906005906111c5565b6000036108c35760038201805490600061087e836111ac565b909155505060038201546040805191825242602083015233917f07549cf6c282b0d18031392e9c0e503c28bdc3fd3a646f70e71c30d72ae0f5d7910160405180910390a25b60018201546040805191825242602083015233917f73265a425293d3d258a62c98f57c77ab2c6cd7824e300b399fce9a251a739fb29101610482565b60015460609081908190600081900361093c5750506040805160008082526020820181815282840191825260608301909352909350909150610e66565b600081861161094b578561094d565b815b905060008267ffffffffffffffff81111561096a5761096a6111d9565b604051908082528060200260200182016040528015610993578160200160208202803683370190505b50905060008367ffffffffffffffff8111156109b1576109b16111d9565b6040519080825280602002602001820160405280156109da578160200160208202803683370190505b50905060005b84811015610aba57600181815481106109fb576109fb6111ef565b9060005260206000200160009054906101000a90046001600160a01b0316838281518110610a2b57610a2b6111ef565b60200260200101906001600160a01b031690816001600160a01b03168152505060008060018381548110610a6157610a616111ef565b60009182526020808320909101546001600160a01b031683528201929092526040019020600401548251839083908110610a9d57610a9d6111ef565b602090810291909101015280610ab2816111ac565b9150506109e0565b5060005b610ac9600186611205565b811015610c915760005b6001610adf8388611205565b610ae99190611205565b811015610c7e5782610afc82600161116f565b81518110610b0c57610b0c6111ef565b6020026020010151838281518110610b2657610b266111ef565b60200260200101511015610c6c576000838281518110610b4857610b486111ef565b6020026020010151905083826001610b60919061116f565b81518110610b7057610b706111ef565b6020026020010151848381518110610b8a57610b8a6111ef565b60209081029190910101528084610ba284600161116f565b81518110610bb257610bb26111ef565b6020026020010181815250506000858381518110610bd257610bd26111ef565b6020026020010151905085836001610bea919061116f565b81518110610bfa57610bfa6111ef565b6020026020010151868481518110610c1457610c146111ef565b6001600160a01b03909216602092830291909101909101528086610c3985600161116f565b81518110610c4957610c496111ef565b60200260200101906001600160a01b031690816001600160a01b03168152505050505b80610c76816111ac565b915050610ad3565b5080610c89816111ac565b915050610abe565b508267ffffffffffffffff811115610cab57610cab6111d9565b604051908082528060200260200182016040528015610cd4578160200160208202803683370190505b5096508267ffffffffffffffff811115610cf057610cf06111d9565b604051908082528060200260200182016040528015610d19578160200160208202803683370190505b5095508267ffffffffffffffff811115610d3557610d356111d9565b604051908082528060200260200182016040528015610d5e578160200160208202803683370190505b50945060005b83811015610e6057828181518110610d7e57610d7e6111ef565b6020026020010151888281518110610d9857610d986111ef565b60200260200101906001600160a01b031690816001600160a01b031681525050818181518110610dca57610dca6111ef565b6020026020010151878281518110610de457610de46111ef565b602002602001018181525050600080848381518110610e0557610e056111ef565b60200260200101516001600160a01b03166001600160a01b0316815260200190815260200160002060010154868281518110610e4357610e436111ef565b602090810291909101015280610e58816111ac565b915050610d64565b50505050505b9193909250565b6001600160a01b038116600090815260208181526040808320815160e081018352815460ff161580158083526001840154958301959095526002830154938201939093526003820154606082015260048201546080820152600582015460a082015260069091015460c082015283928392839283928392839283929091839190610efb575060008260400151115b8015610f165750603c8260400151610f13919061116f565b42105b15610f3a5742603c8360400151610f2d919061116f565b610f379190611205565b90505b6000610f496201518042611198565b90506000818460c0015114610f5f576000610f65565b8360a001515b9050600081601e11610f78576000610f83565b610f8382601e611205565b9050846000015185602001518660400151876060015188608001518887879c509c509c509c509c509c509c509c505050505050919395975091939597565b600080424433604051602001610ffc93929190928352602083019190915260601b6bffffffffffffffffffffffff1916604082015260540190565b60408051601f19818403018152919052805160209091012090506110208484611205565b61102b90600161116f565b61103590826111c5565b61103f908561116f565b9150505b92915050565b60006020828403121561105b57600080fd5b5035919050565b60006020828403121561107457600080fd5b81356001600160a01b038116811461108b57600080fd5b9392505050565b600081518084526020808501945080840160005b838110156110c2578151875295820195908201906001016110a6565b509495945050505050565b606080825284519082018190526000906020906080840190828801845b8281101561110f5781516001600160a01b0316845292840192908401906001016110ea565b505050838103828501526111238187611092565b91505082810360408401526111388185611092565b9695505050505050565b634e487b7160e01b600052601160045260246000fd5b60008161116757611167611142565b506000190190565b8082018082111561104357611043611142565b634e487b7160e01b600052601260045260246000fd5b6000826111a7576111a7611182565b500490565b6000600182016111be576111be611142565b5060010190565b6000826111d4576111d4611182565b500690565b634e487b7160e01b600052604160045260246000fd5b634e487b7160e01b600052603260045260246000fd5b818103818111156110435761104361114256fea2646970667358221220c028f95ff1b147e170a9f13e75e4c56bd418e44787d3eab9564c219f2398818264736f6c63430008140033","opcodes":"PUSH1 0x80 PUSH1 0x40 MSTORE CALLVALUE DUP1 ISZERO PUSH2 0x10 JUMPI PUSH1 0x0 DUP1 REVERT JUMPDEST POP PUSH1 0x3 DUP1 SLOAD PUSH1 0x1 PUSH1 0x1 PUSH1 0xA0 SHL SUB NOT AND CALLER OR SWAP1 SSTORE PUSH2 0x124E DUP1 PUSH2 0x32 PUSH1 0x0 CODECOPY PUSH1 0x0 RETURN INVALID PUSH1 0x80 PUSH1 0x40 MSTORE PUSH1 0x4 CALLDATASIZE LT PUSH2 0xE8 JUMPI PUSH1 0x0 CALLDATALOAD PUSH1 0xE0 SHR DUP1 PUSH4 0x61C05AB6 GT PUSH2 0x8A JUMPI DUP1 PUSH4 0x977745EB GT PUSH2 0x59 JUMPI DUP1 PUSH4 0x977745EB EQ PUSH2 0x282 JUMPI DUP1 PUSH4 0xA34B46FE EQ PUSH2 0x297 JUMPI DUP1 PUSH4 0xC002D23D EQ PUSH2 0x2C6 JUMPI DUP1 PUSH4 0xED85B9F5 EQ PUSH2 0x2E1 JUMPI PUSH1 0x0 DUP1 REVERT JUMPDEST DUP1 PUSH4 0x61C05AB6 EQ PUSH2 0x230 JUMPI DUP1 PUSH4 0x7D263245 EQ PUSH2 0x238 JUMPI DUP1 PUSH4 0x81A9FDF8 EQ PUSH2 0x24D JUMPI DUP1 PUSH4 0x8DA5CB5B EQ PUSH2 0x262 JUMPI PUSH1 0x0 DUP1 REVERT JUMPDEST DUP1 PUSH4 0x3CCFD60B GT PUSH2 0xC6 JUMPI DUP1 PUSH4 0x3CCFD60B EQ PUSH2 0x15E JUMPI DUP1 PUSH4 0x4529CAE7 EQ PUSH2 0x173 JUMPI DUP1 PUSH4 0x4F37BA99 EQ PUSH2 0x188 JUMPI DUP1 PUSH4 0x5005D3B6 EQ PUSH2 0x19D JUMPI PUSH1 0x0 DUP1 REVERT JUMPDEST DUP1 PUSH4 0x544CE5E EQ PUSH2 0xED JUMPI DUP1 PUSH4 0x12065FE0 EQ PUSH2 0x12A JUMPI DUP1 PUSH4 0x2F249CBD EQ PUSH2 0x147 JUMPI JUMPDEST PUSH1 0x0 DUP1 REVERT JUMPDEST CALLVALUE DUP1 ISZERO PUSH2 0xF9 JUMPI PUSH1 0x0 DUP1 REVERT JUMPDEST POP PUSH2 0x10D PUSH2 0x108 CALLDATASIZE PUSH1 0x4 PUSH2 0x1049 JUMP JUMPDEST PUSH2 0x33E JUMP JUMPDEST PUSH1 0x40 MLOAD PUSH1 0x1 PUSH1 0x1 PUSH1 0xA0 SHL SUB SWAP1 SWAP2 AND DUP2 MSTORE PUSH1 0x20 ADD JUMPDEST PUSH1 0x40 MLOAD DUP1 SWAP2 SUB SWAP1 RETURN JUMPDEST CALLVALUE DUP1 ISZERO PUSH2 0x136 JUMPI PUSH1 0x0 DUP1 REVERT JUMPDEST POP SELFBALANCE JUMPDEST PUSH1 0x40 MLOAD SWAP1 DUP2 MSTORE PUSH1 0x20 ADD PUSH2 0x121 JUMP JUMPDEST CALLVALUE DUP1 ISZERO PUSH2 0x153 JUMPI PUSH1 0x0 DUP1 REVERT JUMPDEST POP PUSH2 0x15C PUSH2 0x368 JUMP JUMPDEST STOP JUMPDEST CALLVALUE DUP1 ISZERO PUSH2 0x16A JUMPI PUSH1 0x0 DUP1 REVERT JUMPDEST POP PUSH2 0x15C PUSH2 0x48E JUMP JUMPDEST CALLVALUE DUP1 ISZERO PUSH2 0x17F JUMPI PUSH1 0x0 DUP1 REVERT JUMPDEST POP PUSH1 0x1 SLOAD PUSH2 0x139 JUMP JUMPDEST CALLVALUE DUP1 ISZERO PUSH2 0x194 JUMPI PUSH1 0x0 DUP1 REVERT JUMPDEST POP PUSH2 0x139 PUSH1 0x5 DUP2 JUMP JUMPDEST CALLVALUE DUP1 ISZERO PUSH2 0x1A9 JUMPI PUSH1 0x0 DUP1 REVERT JUMPDEST POP PUSH2 0x1F9 PUSH2 0x1B8 CALLDATASIZE PUSH1 0x4 PUSH2 0x1062 JUMP JUMPDEST PUSH1 0x0 PUSH1 0x20 DUP2 SWAP1 MSTORE SWAP1 DUP2 MSTORE PUSH1 0x40 SWAP1 KECCAK256 DUP1 SLOAD PUSH1 0x1 DUP3 ADD SLOAD PUSH1 0x2 DUP4 ADD SLOAD PUSH1 0x3 DUP5 ADD SLOAD PUSH1 0x4 DUP6 ADD SLOAD PUSH1 0x5 DUP7 ADD SLOAD PUSH1 0x6 SWAP1 SWAP7 ADD SLOAD PUSH1 0xFF SWAP1 SWAP6 AND SWAP6 SWAP4 SWAP5 SWAP3 SWAP4 SWAP2 SWAP3 SWAP1 SWAP2 SWAP1 DUP8 JUMP JUMPDEST PUSH1 0x40 DUP1 MLOAD SWAP8 ISZERO ISZERO DUP9 MSTORE PUSH1 0x20 DUP9 ADD SWAP7 SWAP1 SWAP7 MSTORE SWAP5 DUP7 ADD SWAP4 SWAP1 SWAP4 MSTORE PUSH1 0x60 DUP6 ADD SWAP2 SWAP1 SWAP2 MSTORE PUSH1 0x80 DUP5 ADD MSTORE PUSH1 0xA0 DUP4 ADD MSTORE PUSH1 0xC0 DUP3 ADD MSTORE PUSH1 0xE0 ADD PUSH2 0x121 JUMP JUMPDEST PUSH2 0x15C PUSH2 0x524 JUMP JUMPDEST CALLVALUE DUP1 ISZERO PUSH2 0x244 JUMPI PUSH1 0x0 DUP1 REVERT JUMPDEST POP PUSH2 0x139 PUSH1 0x3C DUP2 JUMP JUMPDEST CALLVALUE DUP1 ISZERO PUSH2 0x259 JUMPI PUSH1 0x0 DUP1 REVERT JUMPDEST POP PUSH2 0x139 PUSH1 0x1E DUP2 JUMP JUMPDEST CALLVALUE DUP1 ISZERO PUSH2 0x26E JUMPI PUSH1 0x0 DUP1 REVERT JUMPDEST POP PUSH1 0x3 SLOAD PUSH2 0x10D SWAP1 PUSH1 0x1 PUSH1 0x1 PUSH1 0xA0 SHL SUB AND DUP2 JUMP JUMPDEST CALLVALUE DUP1 ISZERO PUSH2 0x28E JUMPI PUSH1 0x0 DUP1 REVERT JUMPDEST POP PUSH2 0x15C PUSH2 0x6E6 JUMP JUMPDEST CALLVALUE DUP1 ISZERO PUSH2 0x2A3 JUMPI PUSH1 0x0 DUP1 REVERT JUMPDEST POP PUSH2 0x2B7 PUSH2 0x2B2 CALLDATASIZE PUSH1 0x4 PUSH2 0x1049 JUMP JUMPDEST PUSH2 0x8FF JUMP JUMPDEST PUSH1 0x40 MLOAD PUSH2 0x121 SWAP4 SWAP3 SWAP2 SWAP1 PUSH2 0x10CD JUMP JUMPDEST CALLVALUE DUP1 ISZERO PUSH2 0x2D2 JUMPI PUSH1 0x0 DUP1 REVERT JUMPDEST POP PUSH2 0x139 PUSH7 0x2386F26FC10000 DUP2 JUMP JUMPDEST CALLVALUE DUP1 ISZERO PUSH2 0x2ED JUMPI PUSH1 0x0 DUP1 REVERT JUMPDEST POP PUSH2 0x301 PUSH2 0x2FC CALLDATASIZE PUSH1 0x4 PUSH2 0x1062 JUMP JUMPDEST PUSH2 0xE6D JUMP JUMPDEST PUSH1 0x40 DUP1 MLOAD SWAP9 ISZERO ISZERO DUP10 MSTORE PUSH1 0x20 DUP10 ADD SWAP8 SWAP1 SWAP8 MSTORE SWAP6 DUP8 ADD SWAP5 SWAP1 SWAP5 MSTORE PUSH1 0x60 DUP7 ADD SWAP3 SWAP1 SWAP3 MSTORE PUSH1 0x80 DUP6 ADD MSTORE PUSH1 0xA0 DUP5 ADD MSTORE PUSH1 0xC0 DUP4 ADD MSTORE PUSH1 0xE0 DUP3 ADD MSTORE PUSH2 0x100 ADD PUSH2 0x121 JUMP JUMPDEST PUSH1 0x1 DUP2 DUP2 SLOAD DUP2 LT PUSH2 0x34E JUMPI PUSH1 0x0 DUP1 REVERT JUMPDEST PUSH1 0x0 SWAP2 DUP3 MSTORE PUSH1 0x20 SWAP1 SWAP2 KECCAK256 ADD SLOAD PUSH1 0x1 PUSH1 0x1 PUSH1 0xA0 SHL SUB AND SWAP1 POP DUP2 JUMP JUMPDEST CALLER PUSH1 0x0 SWAP1 DUP2 MSTORE PUSH1 0x20 DUP2 SWAP1 MSTORE PUSH1 0x40 SWAP1 KECCAK256 DUP1 SLOAD PUSH1 0xFF AND PUSH2 0x3C3 JUMPI PUSH1 0x40 MLOAD PUSH3 0x461BCD PUSH1 0xE5 SHL DUP2 MSTORE PUSH1 0x20 PUSH1 0x4 DUP3 ADD MSTORE PUSH1 0x13 PUSH1 0x24 DUP3 ADD MSTORE PUSH19 0x151C995948191BD95CC81B9BDD08195E1A5CDD PUSH1 0x6A SHL PUSH1 0x44 DUP3 ADD MSTORE PUSH1 0x64 ADD JUMPDEST PUSH1 0x40 MLOAD DUP1 SWAP2 SUB SWAP1 REVERT JUMPDEST PUSH1 0x0 DUP2 PUSH1 0x3 ADD SLOAD GT PUSH2 0x40E JUMPI PUSH1 0x40 MLOAD PUSH3 0x461BCD PUSH1 0xE5 SHL DUP2 MSTORE PUSH1 0x20 PUSH1 0x4 DUP3 ADD MSTORE PUSH1 0x14 PUSH1 0x24 DUP3 ADD MSTORE PUSH20 0x139BC8199C9D5A5D1CC81D1BC81A185C9D995CDD PUSH1 0x62 SHL PUSH1 0x44 DUP3 ADD MSTORE PUSH1 0x64 ADD PUSH2 0x3BA JUMP JUMPDEST PUSH1 0x3 DUP2 ADD DUP1 SLOAD SWAP1 PUSH1 0x0 PUSH2 0x420 DUP4 PUSH2 0x1158 JUMP JUMPDEST SWAP2 SWAP1 POP SSTORE POP PUSH1 0x0 PUSH2 0x434 PUSH1 0x64 PUSH2 0x1F4 PUSH2 0xFC1 JUMP JUMPDEST SWAP1 POP DUP1 DUP3 PUSH1 0x4 ADD PUSH1 0x0 DUP3 DUP3 SLOAD PUSH2 0x44A SWAP2 SWAP1 PUSH2 0x116F JUMP JUMPDEST SWAP1 SWAP2 SSTORE POP POP PUSH1 0x40 DUP1 MLOAD DUP3 DUP2 MSTORE TIMESTAMP PUSH1 0x20 DUP3 ADD MSTORE CALLER SWAP2 PUSH32 0x3124920CF24A2E7BEDCE16517D7C77221DF59E26C302F70F69F1D678E341B969 SWAP2 ADD JUMPDEST PUSH1 0x40 MLOAD DUP1 SWAP2 SUB SWAP1 LOG2 POP POP JUMP JUMPDEST PUSH1 0x3 SLOAD PUSH1 0x1 PUSH1 0x1 PUSH1 0xA0 SHL SUB AND CALLER EQ PUSH2 0x4E8 JUMPI PUSH1 0x40 MLOAD PUSH3 0x461BCD PUSH1 0xE5 SHL DUP2 MSTORE PUSH1 0x20 PUSH1 0x4 DUP3 ADD MSTORE PUSH1 0x17 PUSH1 0x24 DUP3 ADD MSTORE PUSH32 0x4F6E6C79206F776E65722063616E207769746864726177000000000000000000 PUSH1 0x44 DUP3 ADD MSTORE PUSH1 0x64 ADD PUSH2 0x3BA JUMP JUMPDEST PUSH1 0x3 SLOAD PUSH1 0x40 MLOAD PUSH1 0x1 PUSH1 0x1 PUSH1 0xA0 SHL SUB SWAP1 SWAP2 AND SWAP1 SELFBALANCE DUP1 ISZERO PUSH2 0x8FC MUL SWAP2 PUSH1 0x0 DUP2 DUP2 DUP2 DUP6 DUP9 DUP9 CALL SWAP4 POP POP POP POP ISZERO DUP1 ISZERO PUSH2 0x521 JUMPI RETURNDATASIZE PUSH1 0x0 DUP1 RETURNDATACOPY RETURNDATASIZE PUSH1 0x0 REVERT JUMPDEST POP JUMP JUMPDEST CALLER PUSH1 0x0 SWAP1 DUP2 MSTORE PUSH1 0x20 DUP2 SWAP1 MSTORE PUSH1 0x40 SWAP1 KECCAK256 SLOAD PUSH1 0xFF AND ISZERO PUSH2 0x57A JUMPI PUSH1 0x40 MLOAD PUSH3 0x461BCD PUSH1 0xE5 SHL DUP2 MSTORE PUSH1 0x20 PUSH1 0x4 DUP3 ADD MSTORE PUSH1 0x13 PUSH1 0x24 DUP3 ADD MSTORE PUSH19 0x5472656520616C726561647920657869737473 PUSH1 0x68 SHL PUSH1 0x44 DUP3 ADD MSTORE PUSH1 0x64 ADD PUSH2 0x3BA JUMP JUMPDEST PUSH7 0x2386F26FC10000 CALLVALUE EQ PUSH2 0x5C7 JUMPI PUSH1 0x40 MLOAD PUSH3 0x461BCD PUSH1 0xE5 SHL DUP2 MSTORE PUSH1 0x20 PUSH1 0x4 DUP3 ADD MSTORE PUSH1 0x14 PUSH1 0x24 DUP3 ADD MSTORE PUSH20 0x125B98DBDC9C9958DD0811551208185B5BDD5B9D PUSH1 0x62 SHL PUSH1 0x44 DUP3 ADD MSTORE PUSH1 0x64 ADD PUSH2 0x3BA JUMP JUMPDEST PUSH1 0x40 DUP1 MLOAD PUSH1 0xE0 DUP2 ADD DUP3 MSTORE PUSH1 0x1 DUP1 DUP3 MSTORE PUSH1 0x0 PUSH1 0x20 DUP1 DUP5 ADD DUP3 DUP2 MSTORE DUP5 DUP7 ADD DUP4 DUP2 MSTORE PUSH1 0x60 DUP7 ADD DUP5 DUP2 MSTORE PUSH1 0x80 DUP8 ADD DUP6 DUP2 MSTORE PUSH1 0xA0 DUP9 ADD DUP7 DUP2 MSTORE PUSH1 0xC0 DUP10 ADD DUP8 DUP2 MSTORE CALLER DUP9 MSTORE DUP8 DUP8 MSTORE DUP11 DUP9 KECCAK256 SWAP10 MLOAD DUP11 SLOAD PUSH1 0xFF NOT AND SWAP1 ISZERO ISZERO OR DUP11 SSTORE SWAP5 MLOAD SWAP8 DUP10 ADD SWAP8 SWAP1 SWAP8 SSTORE SWAP2 MLOAD PUSH1 0x2 DUP1 DUP10 ADD SWAP2 SWAP1 SWAP2 SSTORE SWAP1 MLOAD PUSH1 0x3 DUP9 ADD SSTORE SWAP1 MLOAD PUSH1 0x4 DUP8 ADD SSTORE SWAP4 MLOAD PUSH1 0x5 DUP7 ADD SSTORE MLOAD PUSH1 0x6 SWAP1 SWAP5 ADD SWAP4 SWAP1 SWAP4 SSTORE SWAP2 MSTORE KECCAK256 SLOAD PUSH1 0xFF AND PUSH2 0x6AF JUMPI PUSH1 0x1 DUP1 SLOAD DUP1 DUP3 ADD DUP3 SSTORE PUSH32 0xB10E2D527612073B26EECDFD717E6A320CF44B4AFAC2B0732D9FCBE2B7FA0CF6 ADD DUP1 SLOAD PUSH1 0x1 PUSH1 0x1 PUSH1 0xA0 SHL SUB NOT AND CALLER SWAP1 DUP2 OR SWAP1 SWAP2 SSTORE PUSH1 0x0 SWAP1 DUP2 MSTORE PUSH1 0x2 PUSH1 0x20 MSTORE PUSH1 0x40 SWAP1 KECCAK256 DUP1 SLOAD PUSH1 0xFF NOT AND SWAP1 SWAP2 OR SWAP1 SSTORE JUMPDEST PUSH1 0x40 MLOAD TIMESTAMP DUP2 MSTORE CALLER SWAP1 PUSH32 0x9ACAB985BEB5A8E9DEE68B1AE2706BB0AC978D66E7160B89B4D405F097FFE513 SWAP1 PUSH1 0x20 ADD PUSH1 0x40 MLOAD DUP1 SWAP2 SUB SWAP1 LOG2 JUMP JUMPDEST CALLER PUSH1 0x0 SWAP1 DUP2 MSTORE PUSH1 0x20 DUP2 SWAP1 MSTORE PUSH1 0x40 SWAP1 KECCAK256 DUP1 SLOAD PUSH1 0xFF AND PUSH2 0x73C JUMPI PUSH1 0x40 MLOAD PUSH3 0x461BCD PUSH1 0xE5 SHL DUP2 MSTORE PUSH1 0x20 PUSH1 0x4 DUP3 ADD MSTORE PUSH1 0x13 PUSH1 0x24 DUP3 ADD MSTORE PUSH19 0x151C995948191BD95CC81B9BDD08195E1A5CDD PUSH1 0x6A SHL PUSH1 0x44 DUP3 ADD MSTORE PUSH1 0x64 ADD PUSH2 0x3BA JUMP JUMPDEST PUSH1 0x2 DUP2 ADD SLOAD ISZERO DUP1 PUSH2 0x75D JUMPI POP PUSH1 0x3C DUP2 PUSH1 0x2 ADD SLOAD PUSH2 0x759 SWAP2 SWAP1 PUSH2 0x116F JUMP JUMPDEST TIMESTAMP LT ISZERO JUMPDEST PUSH2 0x7A1 JUMPI PUSH1 0x40 MLOAD PUSH3 0x461BCD PUSH1 0xE5 SHL DUP2 MSTORE PUSH1 0x20 PUSH1 0x4 DUP3 ADD MSTORE PUSH1 0x15 PUSH1 0x24 DUP3 ADD MSTORE PUSH21 0x10DBDBDB191BDDDB881B9BDD08199A5B9A5CDA1959 PUSH1 0x5A SHL PUSH1 0x44 DUP3 ADD MSTORE PUSH1 0x64 ADD PUSH2 0x3BA JUMP JUMPDEST PUSH1 0x0 PUSH2 0x7B0 PUSH3 0x15180 TIMESTAMP PUSH2 0x1198 JUMP JUMPDEST SWAP1 POP DUP1 DUP3 PUSH1 0x6 ADD SLOAD EQ PUSH2 0x7CC JUMPI PUSH1 0x0 PUSH1 0x5 DUP4 ADD SSTORE PUSH1 0x6 DUP3 ADD DUP2 SWAP1 SSTORE JUMPDEST PUSH1 0x1E DUP3 PUSH1 0x5 ADD SLOAD LT PUSH2 0x820 JUMPI PUSH1 0x40 MLOAD PUSH3 0x461BCD PUSH1 0xE5 SHL DUP2 MSTORE PUSH1 0x20 PUSH1 0x4 DUP3 ADD MSTORE PUSH1 0x1D PUSH1 0x24 DUP3 ADD MSTORE PUSH32 0x4461696C792066657274696C697A65206C696D69742072656163686564000000 PUSH1 0x44 DUP3 ADD MSTORE PUSH1 0x64 ADD PUSH2 0x3BA JUMP JUMPDEST PUSH1 0x1 DUP3 ADD DUP1 SLOAD SWAP1 PUSH1 0x0 PUSH2 0x832 DUP4 PUSH2 0x11AC JUMP JUMPDEST SWAP1 SWAP2 SSTORE POP POP PUSH1 0x5 DUP3 ADD DUP1 SLOAD SWAP1 PUSH1 0x0 PUSH2 0x849 DUP4 PUSH2 0x11AC JUMP JUMPDEST SWAP1 SWAP2 SSTORE POP POP TIMESTAMP PUSH1 0x2 DUP4 ADD SSTORE PUSH1 0x1 DUP3 ADD SLOAD PUSH2 0x865 SWAP1 PUSH1 0x5 SWAP1 PUSH2 0x11C5 JUMP JUMPDEST PUSH1 0x0 SUB PUSH2 0x8C3 JUMPI PUSH1 0x3 DUP3 ADD DUP1 SLOAD SWAP1 PUSH1 0x0 PUSH2 0x87E DUP4 PUSH2 0x11AC JUMP JUMPDEST SWAP1 SWAP2 SSTORE POP POP PUSH1 0x3 DUP3 ADD SLOAD PUSH1 0x40 DUP1 MLOAD SWAP2 DUP3 MSTORE TIMESTAMP PUSH1 0x20 DUP4 ADD MSTORE CALLER SWAP2 PUSH32 0x7549CF6C282B0D18031392E9C0E503C28BDC3FD3A646F70E71C30D72AE0F5D7 SWAP2 ADD PUSH1 0x40 MLOAD DUP1 SWAP2 SUB SWAP1 LOG2 JUMPDEST PUSH1 0x1 DUP3 ADD SLOAD PUSH1 0x40 DUP1 MLOAD SWAP2 DUP3 MSTORE TIMESTAMP PUSH1 0x20 DUP4 ADD MSTORE CALLER SWAP2 PUSH32 0x73265A425293D3D258A62C98F57C77AB2C6CD7824E300B399FCE9A251A739FB2 SWAP2 ADD PUSH2 0x482 JUMP JUMPDEST PUSH1 0x1 SLOAD PUSH1 0x60 SWAP1 DUP2 SWAP1 DUP2 SWAP1 PUSH1 0x0 DUP2 SWAP1 SUB PUSH2 0x93C JUMPI POP POP PUSH1 0x40 DUP1 MLOAD PUSH1 0x0 DUP1 DUP3 MSTORE PUSH1 0x20 DUP3 ADD DUP2 DUP2 MSTORE DUP3 DUP5 ADD SWAP2 DUP3 MSTORE PUSH1 0x60 DUP4 ADD SWAP1 SWAP4 MSTORE SWAP1 SWAP4 POP SWAP1 SWAP2 POP PUSH2 0xE66 JUMP JUMPDEST PUSH1 0x0 DUP2 DUP7 GT PUSH2 0x94B JUMPI DUP6 PUSH2 0x94D JUMP JUMPDEST DUP2 JUMPDEST SWAP1 POP PUSH1 0x0 DUP3 PUSH8 0xFFFFFFFFFFFFFFFF DUP2 GT ISZERO PUSH2 0x96A JUMPI PUSH2 0x96A PUSH2 0x11D9 JUMP JUMPDEST PUSH1 0x40 MLOAD SWAP1 DUP1 DUP3 MSTORE DUP1 PUSH1 0x20 MUL PUSH1 0x20 ADD DUP3 ADD PUSH1 0x40 MSTORE DUP1 ISZERO PUSH2 0x993 JUMPI DUP2 PUSH1 0x20 ADD PUSH1 0x20 DUP3 MUL DUP1 CALLDATASIZE DUP4 CALLDATACOPY ADD SWAP1 POP JUMPDEST POP SWAP1 POP PUSH1 0x0 DUP4 PUSH8 0xFFFFFFFFFFFFFFFF DUP2 GT ISZERO PUSH2 0x9B1 JUMPI PUSH2 0x9B1 PUSH2 0x11D9 JUMP JUMPDEST PUSH1 0x40 MLOAD SWAP1 DUP1 DUP3 MSTORE DUP1 PUSH1 0x20 MUL PUSH1 0x20 ADD DUP3 ADD PUSH1 0x40 MSTORE DUP1 ISZERO PUSH2 0x9DA JUMPI DUP2 PUSH1 0x20 ADD PUSH1 0x20 DUP3 MUL DUP1 CALLDATASIZE DUP4 CALLDATACOPY ADD SWAP1 POP JUMPDEST POP SWAP1 POP PUSH1 0x0 JUMPDEST DUP5 DUP2 LT ISZERO PUSH2 0xABA JUMPI PUSH1 0x1 DUP2 DUP2 SLOAD DUP2 LT PUSH2 0x9FB JUMPI PUSH2 0x9FB PUSH2 0x11EF JUMP JUMPDEST SWAP1 PUSH1 0x0 MSTORE PUSH1 0x20 PUSH1 0x0 KECCAK256 ADD PUSH1 0x0 SWAP1 SLOAD SWAP1 PUSH2 0x100 EXP SWAP1 DIV PUSH1 0x1 PUSH1 0x1 PUSH1 0xA0 SHL SUB AND DUP4 DUP3 DUP2 MLOAD DUP2 LT PUSH2 0xA2B JUMPI PUSH2 0xA2B PUSH2 0x11EF JUMP JUMPDEST PUSH1 0x20 MUL PUSH1 0x20 ADD ADD SWAP1 PUSH1 0x1 PUSH1 0x1 PUSH1 0xA0 SHL SUB AND SWAP1 DUP2 PUSH1 0x1 PUSH1 0x1 PUSH1 0xA0 SHL SUB AND DUP2 MSTORE POP POP PUSH1 0x0 DUP1 PUSH1 0x1 DUP4 DUP2 SLOAD DUP2 LT PUSH2 0xA61 JUMPI PUSH2 0xA61 PUSH2 0x11EF JUMP JUMPDEST PUSH1 0x0 SWAP2 DUP3 MSTORE PUSH1 0x20 DUP1 DUP4 KECCAK256 SWAP1 SWAP2 ADD SLOAD PUSH1 0x1 PUSH1 0x1 PUSH1 0xA0 SHL SUB AND DUP4 MSTORE DUP3 ADD SWAP3 SWAP1 SWAP3 MSTORE PUSH1 0x40 ADD SWAP1 KECCAK256 PUSH1 0x4 ADD SLOAD DUP3 MLOAD DUP4 SWAP1 DUP4 SWAP1 DUP2 LT PUSH2 0xA9D JUMPI PUSH2 0xA9D PUSH2 0x11EF JUMP JUMPDEST PUSH1 0x20 SWAP1 DUP2 MUL SWAP2 SWAP1 SWAP2 ADD ADD MSTORE DUP1 PUSH2 0xAB2 DUP2 PUSH2 0x11AC JUMP JUMPDEST SWAP2 POP POP PUSH2 0x9E0 JUMP JUMPDEST POP PUSH1 0x0 JUMPDEST PUSH2 0xAC9 PUSH1 0x1 DUP7 PUSH2 0x1205 JUMP JUMPDEST DUP2 LT ISZERO PUSH2 0xC91 JUMPI PUSH1 0x0 JUMPDEST PUSH1 0x1 PUSH2 0xADF DUP4 DUP9 PUSH2 0x1205 JUMP JUMPDEST PUSH2 0xAE9 SWAP2 SWAP1 PUSH2 0x1205 JUMP JUMPDEST DUP2 LT ISZERO PUSH2 0xC7E JUMPI DUP3 PUSH2 0xAFC DUP3 PUSH1 0x1 PUSH2 0x116F JUMP JUMPDEST DUP2 MLOAD DUP2 LT PUSH2 0xB0C JUMPI PUSH2 0xB0C PUSH2 0x11EF JUMP JUMPDEST PUSH1 0x20 MUL PUSH1 0x20 ADD ADD MLOAD DUP4 DUP3 DUP2 MLOAD DUP2 LT PUSH2 0xB26 JUMPI PUSH2 0xB26 PUSH2 0x11EF JUMP JUMPDEST PUSH1 0x20 MUL PUSH1 0x20 ADD ADD MLOAD LT ISZERO PUSH2 0xC6C JUMPI PUSH1 0x0 DUP4 DUP3 DUP2 MLOAD DUP2 LT PUSH2 0xB48 JUMPI PUSH2 0xB48 PUSH2 0x11EF JUMP JUMPDEST PUSH1 0x20 MUL PUSH1 0x20 ADD ADD MLOAD SWAP1 POP DUP4 DUP3 PUSH1 0x1 PUSH2 0xB60 SWAP2 SWAP1 PUSH2 0x116F JUMP JUMPDEST DUP2 MLOAD DUP2 LT PUSH2 0xB70 JUMPI PUSH2 0xB70 PUSH2 0x11EF JUMP JUMPDEST PUSH1 0x20 MUL PUSH1 0x20 ADD ADD MLOAD DUP5 DUP4 DUP2 MLOAD DUP2 LT PUSH2 0xB8A JUMPI PUSH2 0xB8A PUSH2 0x11EF JUMP JUMPDEST PUSH1 0x20 SWAP1 DUP2 MUL SWAP2 SWAP1 SWAP2 ADD ADD MSTORE DUP1 DUP5 PUSH2 0xBA2 DUP5 PUSH1 0x1 PUSH2 0x116F JUMP JUMPDEST DUP2 MLOAD DUP2 LT PUSH2 0xBB2 JUMPI PUSH2 0xBB2 PUSH2 0x11EF JUMP JUMPDEST PUSH1 0x20 MUL PUSH1 0x20 ADD ADD DUP2 DUP2 MSTORE POP POP PUSH1 0x0 DUP6 DUP4 DUP2 MLOAD DUP2 LT PUSH2 0xBD2 JUMPI PUSH2 0xBD2 PUSH2 0x11EF JUMP JUMPDEST PUSH1 0x20 MUL PUSH1 0x20 ADD ADD MLOAD SWAP1 POP DUP6 DUP4 PUSH1 0x1 PUSH2 0xBEA SWAP2 SWAP1 PUSH2 0x116F JUMP JUMPDEST DUP2 MLOAD DUP2 LT PUSH2 0xBFA JUMPI PUSH2 0xBFA PUSH2 0x11EF JUMP JUMPDEST PUSH1 0x20 MUL PUSH1 0x20 ADD ADD MLOAD DUP7 DUP5 DUP2 MLOAD DUP2 LT PUSH2 0xC14 JUMPI PUSH2 0xC14 PUSH2 0x11EF JUMP JUMPDEST PUSH1 0x1 PUSH1 0x1 PUSH1 0xA0 SHL SUB SWAP1 SWAP3 AND PUSH1 0x20 SWAP3 DUP4 MUL SWAP2 SWAP1 SWAP2 ADD SWAP1 SWAP2 ADD MSTORE DUP1 DUP7 PUSH2 0xC39 DUP6 PUSH1 0x1 PUSH2 0x116F JUMP JUMPDEST DUP2 MLOAD DUP2 LT PUSH2 0xC49 JUMPI PUSH2 0xC49 PUSH2 0x11EF JUMP JUMPDEST PUSH1 0x20 MUL PUSH1 0x20 ADD ADD SWAP1 PUSH1 0x1 PUSH1 0x1 PUSH1 0xA0 SHL SUB AND SWAP1 DUP2 PUSH1 0x1 PUSH1 0x1 PUSH1 0xA0 SHL SUB AND DUP2 MSTORE POP POP POP POP JUMPDEST DUP1 PUSH2 0xC76 DUP2 PUSH2 0x11AC JUMP JUMPDEST SWAP2 POP POP PUSH2 0xAD3 JUMP JUMPDEST POP DUP1 PUSH2 0xC89 DUP2 PUSH2 0x11AC JUMP JUMPDEST SWAP2 POP POP PUSH2 0xABE JUMP JUMPDEST POP DUP3 PUSH8 0xFFFFFFFFFFFFFFFF DUP2 GT ISZERO PUSH2 0xCAB JUMPI PUSH2 0xCAB PUSH2 0x11D9 JUMP JUMPDEST PUSH1 0x40 MLOAD SWAP1 DUP1 DUP3 MSTORE DUP1 PUSH1 0x20 MUL PUSH1 0x20 ADD DUP3 ADD PUSH1 0x40 MSTORE DUP1 ISZERO PUSH2 0xCD4 JUMPI DUP2 PUSH1 0x20 ADD PUSH1 0x20 DUP3 MUL DUP1 CALLDATASIZE DUP4 CALLDATACOPY ADD SWAP1 POP JUMPDEST POP SWAP7 POP DUP3 PUSH8 0xFFFFFFFFFFFFFFFF DUP2 GT ISZERO PUSH2 0xCF0 JUMPI PUSH2 0xCF0 PUSH2 0x11D9 JUMP JUMPDEST PUSH1 0x40 MLOAD SWAP1 DUP1 DUP3 MSTORE DUP1 PUSH1 0x20 MUL PUSH1 0x20 ADD DUP3 ADD PUSH1 0x40 MSTORE DUP1 ISZERO PUSH2 0xD19 JUMPI DUP2 PUSH1 0x20 ADD PUSH1 0x20 DUP3 MUL DUP1 CALLDATASIZE DUP4 CALLDATACOPY ADD SWAP1 POP JUMPDEST POP SWAP6 POP DUP3 PUSH8 0xFFFFFFFFFFFFFFFF DUP2 GT ISZERO PUSH2 0xD35 JUMPI PUSH2 0xD35 PUSH2 0x11D9 JUMP JUMPDEST PUSH1 0x40 MLOAD SWAP1 DUP1 DUP3 MSTORE DUP1 PUSH1 0x20 MUL PUSH1 0x20 ADD DUP3 ADD PUSH1 0x40 MSTORE DUP1 ISZERO PUSH2 0xD5E JUMPI DUP2 PUSH1 0x20 ADD PUSH1 0x20 DUP3 MUL DUP1 CALLDATASIZE DUP4 CALLDATACOPY ADD SWAP1 POP JUMPDEST POP SWAP5 POP PUSH1 0x0 JUMPDEST DUP4 DUP2 LT ISZERO PUSH2 0xE60 JUMPI DUP3 DUP2 DUP2 MLOAD DUP2 LT PUSH2 0xD7E JUMPI PUSH2 0xD7E PUSH2 0x11EF JUMP JUMPDEST PUSH1 0x20 MUL PUSH1 0x20 ADD ADD MLOAD DUP9 DUP3 DUP2 MLOAD DUP2 LT PUSH2 0xD98 JUMPI PUSH2 0xD98 PUSH2 0x11EF JUMP JUMPDEST PUSH1 0x20 MUL PUSH1 0x20 ADD ADD SWAP1 PUSH1 0x1 PUSH1 0x1 PUSH1 0xA0 SHL SUB AND SWAP1 DUP2 PUSH1 0x1 PUSH1 0x1 PUSH1 0xA0 SHL SUB AND DUP2 MSTORE POP POP DUP2 DUP2 DUP2 MLOAD DUP2 LT PUSH2 0xDCA JUMPI PUSH2 0xDCA PUSH2 0x11EF JUMP JUMPDEST PUSH1 0x20 MUL PUSH1 0x20 ADD ADD MLOAD DUP8 DUP3 DUP2 MLOAD DUP2 LT PUSH2 0xDE4 JUMPI PUSH2 0xDE4 PUSH2 0x11EF JUMP JUMPDEST PUSH1 0x20 MUL PUSH1 0x20 ADD ADD DUP2 DUP2 MSTORE POP POP PUSH1 0x0 DUP1 DUP5 DUP4 DUP2 MLOAD DUP2 LT PUSH2 0xE05 JUMPI PUSH2 0xE05 PUSH2 0x11EF JUMP JUMPDEST PUSH1 0x20 MUL PUSH1 0x20 ADD ADD MLOAD PUSH1 0x1 PUSH1 0x1 PUSH1 0xA0 SHL SUB AND PUSH1 0x1 PUSH1 0x1 PUSH1 0xA0 SHL SUB AND DUP2 MSTORE PUSH1 0x20 ADD SWAP1 DUP2 MSTORE PUSH1 0x20 ADD PUSH1 0x0 KECCAK256 PUSH1 0x1 ADD SLOAD DUP7 DUP3 DUP2 MLOAD DUP2 LT PUSH2 0xE43 JUMPI PUSH2 0xE43 PUSH2 0x11EF JUMP JUMPDEST PUSH1 0x20 SWAP1 DUP2 MUL SWAP2 SWAP1 SWAP2 ADD ADD MSTORE DUP1 PUSH2 0xE58 DUP2 PUSH2 0x11AC JUMP JUMPDEST SWAP2 POP POP PUSH2 0xD64 JUMP JUMPDEST POP POP POP POP POP JUMPDEST SWAP2 SWAP4 SWAP1 SWAP3 POP JUMP JUMPDEST PUSH1 0x1 PUSH1 0x1 PUSH1 0xA0 SHL SUB DUP2 AND PUSH1 0x0 SWAP1 DUP2 MSTORE PUSH1 0x20 DUP2 DUP2 MSTORE PUSH1 0x40 DUP1 DUP4 KECCAK256 DUP2 MLOAD PUSH1 0xE0 DUP2 ADD DUP4 MSTORE DUP2 SLOAD PUSH1 0xFF AND ISZERO DUP1 ISZERO DUP1 DUP4 MSTORE PUSH1 0x1 DUP5 ADD SLOAD SWAP6 DUP4 ADD SWAP6 SWAP1 SWAP6 MSTORE PUSH1 0x2 DUP4 ADD SLOAD SWAP4 DUP3 ADD SWAP4 SWAP1 SWAP4 MSTORE PUSH1 0x3 DUP3 ADD SLOAD PUSH1 0x60 DUP3 ADD MSTORE PUSH1 0x4 DUP3 ADD SLOAD PUSH1 0x80 DUP3 ADD MSTORE PUSH1 0x5 DUP3 ADD SLOAD PUSH1 0xA0 DUP3 ADD MSTORE PUSH1 0x6 SWAP1 SWAP2 ADD SLOAD PUSH1 0xC0 DUP3 ADD MSTORE DUP4 SWAP3 DUP4 SWAP3 DUP4 SWAP3 DUP4 SWAP3 DUP4 SWAP3 DUP4 SWAP3 DUP4 SWAP3 SWAP1 SWAP2 DUP4 SWAP2 SWAP1 PUSH2 0xEFB JUMPI POP PUSH1 0x0 DUP3 PUSH1 0x40 ADD MLOAD GT JUMPDEST DUP1 ISZERO PUSH2 0xF16 JUMPI POP PUSH1 0x3C DUP3 PUSH1 0x40 ADD MLOAD PUSH2 0xF13 SWAP2 SWAP1 PUSH2 0x116F JUMP JUMPDEST TIMESTAMP LT JUMPDEST ISZERO PUSH2 0xF3A JUMPI TIMESTAMP PUSH1 0x3C DUP4 PUSH1 0x40 ADD MLOAD PUSH2 0xF2D SWAP2 SWAP1 PUSH2 0x116F JUMP JUMPDEST PUSH2 0xF37 SWAP2 SWAP1 PUSH2 0x1205 JUMP JUMPDEST SWAP1 POP JUMPDEST PUSH1 0x0 PUSH2 0xF49 PUSH3 0x15180 TIMESTAMP PUSH2 0x1198 JUMP JUMPDEST SWAP1 POP PUSH1 0x0 DUP2 DUP5 PUSH1 0xC0 ADD MLOAD EQ PUSH2 0xF5F JUMPI PUSH1 0x0 PUSH2 0xF65 JUMP JUMPDEST DUP4 PUSH1 0xA0 ADD MLOAD JUMPDEST SWAP1 POP PUSH1 0x0 DUP2 PUSH1 0x1E GT PUSH2 0xF78 JUMPI PUSH1 0x0 PUSH2 0xF83 JUMP JUMPDEST PUSH2 0xF83 DUP3 PUSH1 0x1E PUSH2 0x1205 JUMP JUMPDEST SWAP1 POP DUP5 PUSH1 0x0 ADD MLOAD DUP6 PUSH1 0x20 ADD MLOAD DUP7 PUSH1 0x40 ADD MLOAD DUP8 PUSH1 0x60 ADD MLOAD DUP9 PUSH1 0x80 ADD MLOAD DUP9 DUP8 DUP8 SWAP13 POP SWAP13 POP SWAP13 POP SWAP13 POP SWAP13 POP SWAP13 POP SWAP13 POP SWAP13 POP POP POP POP POP POP SWAP2 SWAP4 SWAP6 SWAP8 POP SWAP2 SWAP4 SWAP6 SWAP8 JUMP JUMPDEST PUSH1 0x0 DUP1 TIMESTAMP PREVRANDAO CALLER PUSH1 0x40 MLOAD PUSH1 0x20 ADD PUSH2 0xFFC SWAP4 SWAP3 SWAP2 SWAP1 SWAP3 DUP4 MSTORE PUSH1 0x20 DUP4 ADD SWAP2 SWAP1 SWAP2 MSTORE PUSH1 0x60 SHL PUSH12 0xFFFFFFFFFFFFFFFFFFFFFFFF NOT AND PUSH1 0x40 DUP3 ADD MSTORE PUSH1 0x54 ADD SWAP1 JUMP JUMPDEST PUSH1 0x40 DUP1 MLOAD PUSH1 0x1F NOT DUP2 DUP5 SUB ADD DUP2 MSTORE SWAP2 SWAP1 MSTORE DUP1 MLOAD PUSH1 0x20 SWAP1 SWAP2 ADD KECCAK256 SWAP1 POP PUSH2 0x1020 DUP5 DUP5 PUSH2 0x1205 JUMP JUMPDEST PUSH2 0x102B SWAP1 PUSH1 0x1 PUSH2 0x116F JUMP JUMPDEST PUSH2 0x1035 SWAP1 DUP3 PUSH2 0x11C5 JUMP JUMPDEST PUSH2 0x103F SWAP1 DUP6 PUSH2 0x116F JUMP JUMPDEST SWAP2 POP POP JUMPDEST SWAP3 SWAP2 POP POP JUMP JUMPDEST PUSH1 0x0 PUSH1 0x20 DUP3 DUP5 SUB SLT ISZERO PUSH2 0x105B JUMPI PUSH1 0x0 DUP1 REVERT JUMPDEST POP CALLDATALOAD SWAP2 SWAP1 POP JUMP JUMPDEST PUSH1 0x0 PUSH1 0x20 DUP3 DUP5 SUB SLT ISZERO PUSH2 0x1074 JUMPI PUSH1 0x0 DUP1 REVERT JUMPDEST DUP2 CALLDATALOAD PUSH1 0x1 PUSH1 0x1 PUSH1 0xA0 SHL SUB DUP2 AND DUP2 EQ PUSH2 0x108B JUMPI PUSH1 0x0 DUP1 REVERT JUMPDEST SWAP4 SWAP3 POP POP POP JUMP JUMPDEST PUSH1 0x0 DUP2 MLOAD DUP1 DUP5 MSTORE PUSH1 0x20 DUP1 DUP6 ADD SWAP5 POP DUP1 DUP5 ADD PUSH1 0x0 JUMPDEST DUP4 DUP2 LT ISZERO PUSH2 0x10C2 JUMPI DUP2 MLOAD DUP8 MSTORE SWAP6 DUP3 ADD SWAP6 SWAP1 DUP3 ADD SWAP1 PUSH1 0x1 ADD PUSH2 0x10A6 JUMP JUMPDEST POP SWAP5 SWAP6 SWAP5 POP POP POP POP POP JUMP JUMPDEST PUSH1 0x60 DUP1 DUP3 MSTORE DUP5 MLOAD SWAP1 DUP3 ADD DUP2 SWAP1 MSTORE PUSH1 0x0 SWAP1 PUSH1 0x20 SWAP1 PUSH1 0x80 DUP5 ADD SWAP1 DUP3 DUP9 ADD DUP5 JUMPDEST DUP3 DUP2 LT ISZERO PUSH2 0x110F JUMPI DUP2 MLOAD PUSH1 0x1 PUSH1 0x1 PUSH1 0xA0 SHL SUB AND DUP5 MSTORE SWAP3 DUP5 ADD SWAP3 SWAP1 DUP5 ADD SWAP1 PUSH1 0x1 ADD PUSH2 0x10EA JUMP JUMPDEST POP POP POP DUP4 DUP2 SUB DUP3 DUP6 ADD MSTORE PUSH2 0x1123 DUP2 DUP8 PUSH2 0x1092 JUMP JUMPDEST SWAP2 POP POP DUP3 DUP2 SUB PUSH1 0x40 DUP5 ADD MSTORE PUSH2 0x1138 DUP2 DUP6 PUSH2 0x1092 JUMP JUMPDEST SWAP7 SWAP6 POP POP POP POP POP POP JUMP JUMPDEST PUSH4 0x4E487B71 PUSH1 0xE0 SHL PUSH1 0x0 MSTORE PUSH1 0x11 PUSH1 0x4 MSTORE PUSH1 0x24 PUSH1 0x0 REVERT JUMPDEST PUSH1 0x0 DUP2 PUSH2 0x1167 JUMPI PUSH2 0x1167 PUSH2 0x1142 JUMP JUMPDEST POP PUSH1 0x0 NOT ADD SWAP1 JUMP JUMPDEST DUP1 DUP3 ADD DUP1 DUP3 GT ISZERO PUSH2 0x1043 JUMPI PUSH2 0x1043 PUSH2 0x1142 JUMP JUMPDEST PUSH4 0x4E487B71 PUSH1 0xE0 SHL PUSH1 0x0 MSTORE PUSH1 0x12 PUSH1 0x4 MSTORE PUSH1 0x24 PUSH1 0x0 REVERT JUMPDEST PUSH1 0x0 DUP3 PUSH2 0x11A7 JUMPI PUSH2 0x11A7 PUSH2 0x1182 JUMP JUMPDEST POP DIV SWAP1 JUMP JUMPDEST PUSH1 0x0 PUSH1 0x1 DUP3 ADD PUSH2 0x11BE JUMPI PUSH2 0x11BE PUSH2 0x1142 JUMP JUMPDEST POP PUSH1 0x1 ADD SWAP1 JUMP JUMPDEST PUSH1 0x0 DUP3 PUSH2 0x11D4 JUMPI PUSH2 0x11D4 PUSH2 0x1182 JUMP JUMPDEST POP MOD SWAP1 JUMP JUMPDEST PUSH4 0x4E487B71 PUSH1 0xE0 SHL PUSH1 0x0 MSTORE PUSH1 0x41 PUSH1 0x4 MSTORE PUSH1 0x24 PUSH1 0x0 REVERT JUMPDEST PUSH4 0x4E487B71 PUSH1 0xE0 SHL PUSH1 0x0 MSTORE PUSH1 0x32 PUSH1 0x4 MSTORE PUSH1 0x24 PUSH1 0x0 REVERT JUMPDEST DUP2 DUP2 SUB DUP2 DUP2 GT ISZERO PUSH2 0x1043 JUMPI PUSH2 0x1043 PUSH2 0x1142 JUMP INVALID LOG2 PUSH5 0x6970667358 0x22 SLT KECCAK256 0xC0 0x28 0xF9 PUSH0 CALL 0xB1 SELFBALANCE 0xE1 PUSH17 0xA9F13E75E4C56BD418E44787D3EAB9564C 0x21 SWAP16 0x23 SWAP9 DUP2 DUP3 PUSH5 0x736F6C6343 STOP ADDMOD EQ STOP CALLER "},"methodIdentifiers":{"COOLDOWN_TIME()":"7d263245","FERTILIZE_FOR_FRUIT()":"4f37ba99","MAX_DAILY_FERTILIZE()":"81a9fdf8","MINT_PRICE()":"c002d23d","allPlayers(uint256)":"0544ce5e","fertilize()":"977745eb","getBalance()":"12065fe0","getLeaderboard(uint256)":"a34b46fe","getTotalPlayers()":"4529cae7","getTreeInfo(address)":"ed85b9f5","harvestFruit()":"2f249cbd","mintTree()":"61c05ab6","owner()":"8da5cb5b","trees(address)":"5005d3b6","withdraw()":"3ccfd60b"}}}}}