{
  "_format": "hh-sol-artifact-1",
  "contractName": "MagicTree",
  "sourceName": "contracts/MagicTree.sol",
  "abi": [
    {
      "inputs": [],
      "stateMutability": "nonpayable",
      "type": "constructor"
    },
    {
      "anonymous": false,
      "inputs": [
        {
          "indexed": true,
          "internalType": "address",
          "name": "owner",
          "type": "address"
        },
        {
          "indexed": false,
          "internalType": "uint256",
          "name": "points",
          "type": "uint256"
        },
        {
          "indexed": false,
          "internalType": "uint256",
          "name": "timestamp",
          "type": "uint256"
        }
      ],
      "name": "FruitDecomposed",
      "type": "event"
    },
    {
      "anonymous": false,
      "inputs": [
        {
          "indexed": true,
          "internalType": "address",
          "name": "owner",
          "type": "address"
        },
        {
          "indexed": false,
          "internalType": "uint256",
          "name": "fruitCount",
          "type": "uint256"
        },
        {
          "indexed": false,
          "internalType": "uint256",
          "name": "timestamp",
          "type": "uint256"
        }
      ],
      "name": "FruitHarvested",
      "type": "event"
    },
    {
      "anonymous": false,
      "inputs": [
        {
          "indexed": true,
          "internalType": "address",
          "name": "owner",
          "type": "address"
        },
        {
          "indexed": false,
          "internalType": "uint256",
          "name": "count",
          "type": "uint256"
        },
        {
          "indexed": false,
          "internalType": "uint256",
          "name": "timestamp",
          "type": "uint256"
        }
      ],
      "name": "TreeFertilized",
      "type": "event"
    },
    {
      "anonymous": false,
      "inputs": [
        {
          "indexed": true,
          "internalType": "address",
          "name": "owner",
          "type": "address"
        },
        {
          "indexed": false,
          "internalType": "uint256",
          "name": "timestamp",
          "type": "uint256"
        }
      ],
      "name": "TreeMinted",
      "type": "event"
    },
    {
      "inputs": [],
      "name": "COOLDOWN_TIME",
      "outputs": [
        {
          "internalType": "uint256",
          "name": "",
          "type": "uint256"
        }
      ],
      "stateMutability": "view",
      "type": "function"
    },
    {
      "inputs": [],
      "name": "FERTILIZE_FOR_FRUIT",
      "outputs": [
        {
          "internalType": "uint256",
          "name": "",
          "type": "uint256"
        }
      ],
      "stateMutability": "view",
      "type": "function"
    },
    {
      "inputs": [],
      "name": "MINT_PRICE",
      "outputs": [
        {
          "internalType": "uint256",
          "name": "",
          "type": "uint256"
        }
      ],
      "stateMutability": "view",
      "type": "function"
    },
    {
      "inputs": [
        {
          "internalType": "uint256",
          "name": "",
          "type": "uint256"
        }
      ],
      "name": "allPlayers",
      "outputs": [
        {
          "internalType": "address",
          "name": "",
          "type": "address"
        }
      ],
      "stateMutability": "view",
      "type": "function"
    },
    {
      "inputs": [],
      "name": "fertilize",
      "outputs": [],
      "stateMutability": "nonpayable",
      "type": "function"
    },
    {
      "inputs": [],
      "name": "getBalance",
      "outputs": [
        {
          "internalType": "uint256",
          "name": "",
          "type": "uint256"
        }
      ],
      "stateMutability": "view",
      "type": "function"
    },
    {
      "inputs": [
        {
          "internalType": "uint256",
          "name": "limit",
          "type": "uint256"
        }
      ],
      "name": "getLeaderboard",
      "outputs": [
        {
          "internalType": "address[]",
          "name": "addresses",
          "type": "address[]"
        },
        {
          "internalType": "uint256[]",
          "name": "points",
          "type": "uint256[]"
        },
        {
          "internalType": "uint256[]",
          "name": "fertilizeCounts",
          "type": "uint256[]"
        }
      ],
      "stateMutability": "view",
      "type": "function"
    },
    {
      "inputs": [],
      "name": "getTotalPlayers",
      "outputs": [
        {
          "internalType": "uint256",
          "name": "",
          "type": "uint256"
        }
      ],
      "stateMutability": "view",
      "type": "function"
    },
    {
      "inputs": [
        {
          "internalType": "address",
          "name": "user",
          "type": "address"
        }
      ],
      "name": "getTreeInfo",
      "outputs": [
        {
          "internalType": "bool",
          "name": "exists",
          "type": "bool"
        },
        {
          "internalType": "uint256",
          "name": "fertilizeCount",
          "type": "uint256"
        },
        {
          "internalType": "uint256",
          "name": "lastActionTime",
          "type": "uint256"
        },
        {
          "internalType": "uint256",
          "name": "fruits",
          "type": "uint256"
        },
        {
          "internalType": "uint256",
          "name": "points",
          "type": "uint256"
        },
        {
          "internalType": "uint256",
          "name": "cooldownRemaining",
          "type": "uint256"
        }
      ],
      "stateMutability": "view",
      "type": "function"
    },
    {
      "inputs": [],
      "name": "harvestFruit",
      "outputs": [],
      "stateMutability": "nonpayable",
      "type": "function"
    },
    {
      "inputs": [],
      "name": "mintTree",
      "outputs": [],
      "stateMutability": "payable",
      "type": "function"
    },
    {
      "inputs": [],
      "name": "owner",
      "outputs": [
        {
          "internalType": "address",
          "name": "",
          "type": "address"
        }
      ],
      "stateMutability": "view",
      "type": "function"
    },
    {
      "inputs": [
        {
          "internalType": "address",
          "name": "",
          "type": "address"
        }
      ],
      "name": "trees",
      "outputs": [
        {
          "internalType": "bool",
          "name": "exists",
          "type": "bool"
        },
        {
          "internalType": "uint256",
          "name": "fertilizeCount",
          "type": "uint256"
        },
        {
          "internalType": "uint256",
          "name": "lastActionTime",
          "type": "uint256"
        },
        {
          "internalType": "uint256",
          "name": "fruits",
          "type": "uint256"
        },
        {
          "internalType": "uint256",
          "name": "points",
          "type": "uint256"
        }
      ],
      "stateMutability": "view",
      "type": "function"
    },
    {
      "inputs": [],
      "name": "withdraw",
      "outputs": [],
      "stateMutability": "nonpayable",
      "type": "function"
    }
  ],
  "bytecode": "0x608060405234801561001057600080fd5b50600380546001600160a01b0319163317905561105d806100326000396000f3fe6080604052600436106100dd5760003560e01c806361c05ab61161007f578063977745eb11610059578063977745eb14610247578063a34b46fe1461025c578063c002d23d1461028b578063ed85b9f5146102a657600080fd5b806361c05ab61461020a5780637d263245146102125780638da5cb5b1461022757600080fd5b80633ccfd60b116100bb5780633ccfd60b146101535780634529cae7146101685780634f37ba991461017d5780635005d3b61461019257600080fd5b80630544ce5e146100e257806312065fe01461011f5780632f249cbd1461013c575b600080fd5b3480156100ee57600080fd5b506101026100fd366004610e74565b6102f5565b6040516001600160a01b0390911681526020015b60405180910390f35b34801561012b57600080fd5b50475b604051908152602001610116565b34801561014857600080fd5b5061015161031f565b005b34801561015f57600080fd5b50610151610444565b34801561017457600080fd5b5060015461012e565b34801561018957600080fd5b5061012e600581565b34801561019e57600080fd5b506101e06101ad366004610e8d565b6000602081905290815260409020805460018201546002830154600384015460049094015460ff90931693919290919085565b6040805195151586526020860194909452928401919091526060830152608082015260a001610116565b6101516104da565b34801561021e57600080fd5b5061012e603c81565b34801561023357600080fd5b50600354610102906001600160a01b031681565b34801561025357600080fd5b50610151610618565b34801561026857600080fd5b5061027c610277366004610e74565b6107a1565b60405161011693929190610ef8565b34801561029757600080fd5b5061012e662386f26fc1000081565b3480156102b257600080fd5b506102c66102c1366004610e8d565b610d0f565b6040805196151587526020870195909552938501929092526060840152608083015260a082015260c001610116565b6001818154811061030557600080fd5b6000918252602090912001546001600160a01b0316905081565b336000908152602081905260409020805460ff1661037a5760405162461bcd60e51b8152602060048201526013602482015272151c995948191bd95cc81b9bdd08195e1a5cdd606a1b60448201526064015b60405180910390fd5b60008160030154116103c55760405162461bcd60e51b8152602060048201526014602482015273139bc8199c9d5a5d1cc81d1bc81a185c9d995cdd60621b6044820152606401610371565b6003810180549060006103d783610f83565b919050555060006103eb60646101f4610dec565b9050808260040160008282546104019190610f9a565b90915550506040805182815242602082015233917f3124920cf24a2e7bedce16517d7c77221df59e26c302f70f69f1d678e341b969910160405180910390a25050565b6003546001600160a01b0316331461049e5760405162461bcd60e51b815260206004820152601760248201527f4f6e6c79206f776e65722063616e2077697468647261770000000000000000006044820152606401610371565b6003546040516001600160a01b03909116904780156108fc02916000818181858888f193505050501580156104d7573d6000803e3d6000fd5b50565b3360009081526020819052604090205460ff16156105305760405162461bcd60e51b81526020600482015260136024820152725472656520616c72656164792065786973747360681b6044820152606401610371565b662386f26fc10000341461057d5760405162461bcd60e51b8152602060048201526014602482015273125b98dbdc9c9958dd0811551208185b5bdd5b9d60621b6044820152606401610371565b6040805160a081018252600180825260006020808401828152848601838152606086018481526080870185815233808752868652958990209751885460ff1916901515178855925195870195909555516002860155925160038501559151600490930192909255915142815290917f9acab985beb5a8e9dee68b1ae2706bb0ac978d66e7160b89b4d405f097ffe513910160405180910390a2565b336000908152602081905260409020805460ff1661066e5760405162461bcd60e51b8152602060048201526013602482015272151c995948191bd95cc81b9bdd08195e1a5cdd606a1b6044820152606401610371565b6002810154158061068f5750603c816002015461068b9190610f9a565b4210155b6106d35760405162461bcd60e51b815260206004820152601560248201527410dbdbdb191bdddb881b9bdd08199a5b9a5cda1959605a1b6044820152606401610371565b6001810180549060006106e583610fad565b9091555050426002820155600181015461070190600590610fc6565b60000361075f5760038101805490600061071a83610fad565b909155505060038101546040805191825242602083015233917f07549cf6c282b0d18031392e9c0e503c28bdc3fd3a646f70e71c30d72ae0f5d7910160405180910390a25b60018101546040805191825242602083015233917f73265a425293d3d258a62c98f57c77ab2c6cd7824e300b399fce9a251a739fb2910160405180910390a250565b6001546060908190819060008190036107de5750506040805160008082526020820181815282840191825260608301909352909350909150610d08565b60008186116107ed57856107ef565b815b905060008267ffffffffffffffff81111561080c5761080c610fe8565b604051908082528060200260200182016040528015610835578160200160208202803683370190505b50905060008367ffffffffffffffff81111561085357610853610fe8565b60405190808252806020026020018201604052801561087c578160200160208202803683370190505b50905060005b8481101561095c576001818154811061089d5761089d610ffe565b9060005260206000200160009054906101000a90046001600160a01b03168382815181106108cd576108cd610ffe565b60200260200101906001600160a01b031690816001600160a01b0316815250506000806001838154811061090357610903610ffe565b60009182526020808320909101546001600160a01b03168352820192909252604001902060040154825183908390811061093f5761093f610ffe565b60209081029190910101528061095481610fad565b915050610882565b5060005b61096b600186611014565b811015610b335760005b60016109818388611014565b61098b9190611014565b811015610b20578261099e826001610f9a565b815181106109ae576109ae610ffe565b60200260200101518382815181106109c8576109c8610ffe565b60200260200101511015610b0e5760008382815181106109ea576109ea610ffe565b6020026020010151905083826001610a029190610f9a565b81518110610a1257610a12610ffe565b6020026020010151848381518110610a2c57610a2c610ffe565b60209081029190910101528084610a44846001610f9a565b81518110610a5457610a54610ffe565b6020026020010181815250506000858381518110610a7457610a74610ffe565b6020026020010151905085836001610a8c9190610f9a565b81518110610a9c57610a9c610ffe565b6020026020010151868481518110610ab657610ab6610ffe565b6001600160a01b03909216602092830291909101909101528086610adb856001610f9a565b81518110610aeb57610aeb610ffe565b60200260200101906001600160a01b031690816001600160a01b03168152505050505b80610b1881610fad565b915050610975565b5080610b2b81610fad565b915050610960565b508267ffffffffffffffff811115610b4d57610b4d610fe8565b604051908082528060200260200182016040528015610b76578160200160208202803683370190505b5096508267ffffffffffffffff811115610b9257610b92610fe8565b604051908082528060200260200182016040528015610bbb578160200160208202803683370190505b5095508267ffffffffffffffff811115610bd757610bd7610fe8565b604051908082528060200260200182016040528015610c00578160200160208202803683370190505b50945060005b83811015610d0257828181518110610c2057610c20610ffe565b6020026020010151888281518110610c3a57610c3a610ffe565b60200260200101906001600160a01b031690816001600160a01b031681525050818181518110610c6c57610c6c610ffe565b6020026020010151878281518110610c8657610c86610ffe565b602002602001018181525050600080848381518110610ca757610ca7610ffe565b60200260200101516001600160a01b03166001600160a01b0316815260200190815260200160002060010154868281518110610ce557610ce5610ffe565b602090810291909101015280610cfa81610fad565b915050610c06565b50505050505b9193909250565b6001600160a01b038116600090815260208181526040808320815160a081018352815460ff1615801580835260018401549583019590955260028301549382019390935260038201546060820152600490910154608082015283928392839283928392839190610d83575060008260400151115b8015610d9e5750603c8260400151610d9b9190610f9a565b42105b15610dc25742603c8360400151610db59190610f9a565b610dbf9190611014565b90505b8151602083015160408401516060850151608090950151929c919b50995092975095509350915050565b600080424433604051602001610e2793929190928352602083019190915260601b6bffffffffffffffffffffffff1916604082015260540190565b60408051601f1981840301815291905280516020909101209050610e4b8484611014565b610e56906001610f9a565b610e609082610fc6565b610e6a9085610f9a565b9150505b92915050565b600060208284031215610e8657600080fd5b5035919050565b600060208284031215610e9f57600080fd5b81356001600160a01b0381168114610eb657600080fd5b9392505050565b600081518084526020808501945080840160005b83811015610eed57815187529582019590820190600101610ed1565b509495945050505050565b606080825284519082018190526000906020906080840190828801845b82811015610f3a5781516001600160a01b031684529284019290840190600101610f15565b50505083810382850152610f4e8187610ebd565b9150508281036040840152610f638185610ebd565b9695505050505050565b634e487b7160e01b600052601160045260246000fd5b600081610f9257610f92610f6d565b506000190190565b80820180821115610e6e57610e6e610f6d565b600060018201610fbf57610fbf610f6d565b5060010190565b600082610fe357634e487b7160e01b600052601260045260246000fd5b500690565b634e487b7160e01b600052604160045260246000fd5b634e487b7160e01b600052603260045260246000fd5b81810381811115610e6e57610e6e610f6d56fea2646970667358221220089149bbdfec8d8d5a27fb4b17231f31dbe9aa7f5dc4ee8ec12b57e3bd06ef5e64736f6c63430008140033",
  "linkReferences": {},
  "deployedLinkReferences": {}
}