{
  "_format": "hh-sol-artifact-1",
  "contractName": "MagicTree",
  "sourceName": "contracts/MagicTree.sol",
  "abi": [
    {
      "inputs": [
        {
          "internalType": "address",
          "name": "_tokenAddress",
          "type": "address"
        }
      ],
      "stateMutability": "nonpayable",
      "type": "constructor"
    },
    {
      "anonymous": false,
      "inputs": [
        {
          "indexed": true,
          "internalType": "address",
          "name": "owner",
          "type": "address"
        },
        {
          "indexed": false,
          "internalType": "uint256",
          "name": "points",
          "type": "uint256"
        },
        {
          "indexed": false,
          "internalType": "uint256",
          "name": "timestamp",
          "type": "uint256"
        }
      ],
      "name": "FruitDecomposed",
      "type": "event"
    },
    {
      "anonymous": false,
      "inputs": [
        {
          "indexed": true,
          "internalType": "address",
          "name": "owner",
          "type": "address"
        },
        {
          "indexed": false,
          "internalType": "uint256",
          "name": "fruitCount",
          "type": "uint256"
        },
        {
          "indexed": false,
          "internalType": "uint256",
          "name": "timestamp",
          "type": "uint256"
        }
      ],
      "name": "FruitHarvested",
      "type": "event"
    },
    {
      "anonymous": false,
      "inputs": [
        {
          "indexed": true,
          "internalType": "address",
          "name": "user",
          "type": "address"
        },
        {
          "indexed": false,
          "internalType": "uint256",
          "name": "pointsSpent",
          "type": "uint256"
        },
        {
          "indexed": false,
          "internalType": "uint256",
          "name": "tokensReceived",
          "type": "uint256"
        },
        {
          "indexed": false,
          "internalType": "uint256",
          "name": "timestamp",
          "type": "uint256"
        }
      ],
      "name": "TokensRedeemed",
      "type": "event"
    },
    {
      "anonymous": false,
      "inputs": [
        {
          "indexed": true,
          "internalType": "address",
          "name": "owner",
          "type": "address"
        },
        {
          "indexed": false,
          "internalType": "uint256",
          "name": "count",
          "type": "uint256"
        },
        {
          "indexed": false,
          "internalType": "uint256",
          "name": "timestamp",
          "type": "uint256"
        }
      ],
      "name": "TreeFertilized",
      "type": "event"
    },
    {
      "anonymous": false,
      "inputs": [
        {
          "indexed": true,
          "internalType": "address",
          "name": "owner",
          "type": "address"
        },
        {
          "indexed": false,
          "internalType": "uint256",
          "name": "timestamp",
          "type": "uint256"
        }
      ],
      "name": "TreeMinted",
      "type": "event"
    },
    {
      "inputs": [],
      "name": "COOLDOWN_TIME",
      "outputs": [
        {
          "internalType": "uint256",
          "name": "",
          "type": "uint256"
        }
      ],
      "stateMutability": "view",
      "type": "function"
    },
    {
      "inputs": [],
      "name": "FERTILIZE_FOR_FRUIT",
      "outputs": [
        {
          "internalType": "uint256",
          "name": "",
          "type": "uint256"
        }
      ],
      "stateMutability": "view",
      "type": "function"
    },
    {
      "inputs": [],
      "name": "MAX_DAILY_FERTILIZE",
      "outputs": [
        {
          "internalType": "uint256",
          "name": "",
          "type": "uint256"
        }
      ],
      "stateMutability": "view",
      "type": "function"
    },
    {
      "inputs": [],
      "name": "MINT_PRICE",
      "outputs": [
        {
          "internalType": "uint256",
          "name": "",
          "type": "uint256"
        }
      ],
      "stateMutability": "view",
      "type": "function"
    },
    {
      "inputs": [],
      "name": "TOTAL_TOKEN_SUPPLY",
      "outputs": [
        {
          "internalType": "uint256",
          "name": "",
          "type": "uint256"
        }
      ],
      "stateMutability": "view",
      "type": "function"
    },
    {
      "inputs": [
        {
          "internalType": "uint256",
          "name": "",
          "type": "uint256"
        }
      ],
      "name": "allPlayers",
      "outputs": [
        {
          "internalType": "address",
          "name": "",
          "type": "address"
        }
      ],
      "stateMutability": "view",
      "type": "function"
    },
    {
      "inputs": [],
      "name": "fertilize",
      "outputs": [],
      "stateMutability": "nonpayable",
      "type": "function"
    },
    {
      "inputs": [],
      "name": "getBalance",
      "outputs": [
        {
          "internalType": "uint256",
          "name": "",
          "type": "uint256"
        }
      ],
      "stateMutability": "view",
      "type": "function"
    },
    {
      "inputs": [],
      "name": "getCurrentExchangeRate",
      "outputs": [
        {
          "internalType": "uint256",
          "name": "",
          "type": "uint256"
        }
      ],
      "stateMutability": "view",
      "type": "function"
    },
    {
      "inputs": [
        {
          "internalType": "uint256",
          "name": "limit",
          "type": "uint256"
        }
      ],
      "name": "getLeaderboard",
      "outputs": [
        {
          "internalType": "address[]",
          "name": "addresses",
          "type": "address[]"
        },
        {
          "internalType": "uint256[]",
          "name": "points",
          "type": "uint256[]"
        },
        {
          "internalType": "uint256[]",
          "name": "fertilizeCounts",
          "type": "uint256[]"
        }
      ],
      "stateMutability": "view",
      "type": "function"
    },
    {
      "inputs": [],
      "name": "getTokenRemainingPercentage",
      "outputs": [
        {
          "internalType": "uint256",
          "name": "",
          "type": "uint256"
        }
      ],
      "stateMutability": "view",
      "type": "function"
    },
    {
      "inputs": [],
      "name": "getTotalPlayers",
      "outputs": [
        {
          "internalType": "uint256",
          "name": "",
          "type": "uint256"
        }
      ],
      "stateMutability": "view",
      "type": "function"
    },
    {
      "inputs": [
        {
          "internalType": "address",
          "name": "user",
          "type": "address"
        }
      ],
      "name": "getTreeInfo",
      "outputs": [
        {
          "internalType": "bool",
          "name": "exists",
          "type": "bool"
        },
        {
          "internalType": "uint256",
          "name": "fertilizeCount",
          "type": "uint256"
        },
        {
          "internalType": "uint256",
          "name": "lastActionTime",
          "type": "uint256"
        },
        {
          "internalType": "uint256",
          "name": "fruits",
          "type": "uint256"
        },
        {
          "internalType": "uint256",
          "name": "points",
          "type": "uint256"
        },
        {
          "internalType": "uint256",
          "name": "cooldownRemaining",
          "type": "uint256"
        },
        {
          "internalType": "uint256",
          "name": "dailyFertilizeCount",
          "type": "uint256"
        },
        {
          "internalType": "uint256",
          "name": "dailyFertilizeRemaining",
          "type": "uint256"
        }
      ],
      "stateMutability": "view",
      "type": "function"
    },
    {
      "inputs": [],
      "name": "harvestFruit",
      "outputs": [],
      "stateMutability": "nonpayable",
      "type": "function"
    },
    {
      "inputs": [],
      "name": "magicToken",
      "outputs": [
        {
          "internalType": "contract IMagicToken",
          "name": "",
          "type": "address"
        }
      ],
      "stateMutability": "view",
      "type": "function"
    },
    {
      "inputs": [],
      "name": "mintTree",
      "outputs": [],
      "stateMutability": "payable",
      "type": "function"
    },
    {
      "inputs": [],
      "name": "owner",
      "outputs": [
        {
          "internalType": "address",
          "name": "",
          "type": "address"
        }
      ],
      "stateMutability": "view",
      "type": "function"
    },
    {
      "inputs": [
        {
          "internalType": "uint256",
          "name": "pointsToSpend",
          "type": "uint256"
        }
      ],
      "name": "redeemTokens",
      "outputs": [],
      "stateMutability": "nonpayable",
      "type": "function"
    },
    {
      "inputs": [
        {
          "internalType": "address",
          "name": "",
          "type": "address"
        }
      ],
      "name": "trees",
      "outputs": [
        {
          "internalType": "bool",
          "name": "exists",
          "type": "bool"
        },
        {
          "internalType": "uint256",
          "name": "fertilizeCount",
          "type": "uint256"
        },
        {
          "internalType": "uint256",
          "name": "lastActionTime",
          "type": "uint256"
        },
        {
          "internalType": "uint256",
          "name": "fruits",
          "type": "uint256"
        },
        {
          "internalType": "uint256",
          "name": "points",
          "type": "uint256"
        },
        {
          "internalType": "uint256",
          "name": "dailyFertilizeCount",
          "type": "uint256"
        },
        {
          "internalType": "uint256",
          "name": "lastFertilizeDate",
          "type": "uint256"
        }
      ],
      "stateMutability": "view",
      "type": "function"
    },
    {
      "inputs": [],
      "name": "withdraw",
      "outputs": [],
      "stateMutability": "nonpayable",
      "type": "function"
    }
  ],
  "bytecode": "0x60a060405234801561001057600080fd5b5060405161173738038061173783398101604081905261002f91610052565b600380546001600160a01b031916331790556001600160a01b0316608052610082565b60006020828403121561006457600080fd5b81516001600160a01b038116811461007b57600080fd5b9392505050565b6080516116856100b26000396000818161035f015281816107ba01528181611098015261119801526116856000f3fe60806040526004361061011f5760003560e01c80637d263245116100a0578063a6e158f811610064578063a6e158f814610312578063c002d23d14610332578063c808b22b1461034d578063ccf053ba14610381578063ed85b9f5146103a057600080fd5b80637d2632451461029957806381a9fdf8146102995780638da5cb5b146102ae578063977745eb146102ce578063a34b46fe146102e357600080fd5b80634529cae7116100e75780634529cae7146101bf5780634f37ba99146101d45780635005d3b6146101e957806361c05ab61461027c5780637bdefe491461028457600080fd5b80630544ce5e1461012457806312065fe0146101615780632f249cbd1461017e5780633ca967f3146101955780633ccfd60b146101aa575b600080fd5b34801561013057600080fd5b5061014461013f366004611421565b6103fd565b6040516001600160a01b0390911681526020015b60405180910390f35b34801561016d57600080fd5b50475b604051908152602001610158565b34801561018a57600080fd5b50610193610427565b005b3480156101a157600080fd5b5061017061052b565b3480156101b657600080fd5b5061019361055d565b3480156101cb57600080fd5b50600154610170565b3480156101e057600080fd5b50610170600581565b3480156101f557600080fd5b5061024561020436600461143a565b600060208190529081526040902080546001820154600283015460038401546004850154600586015460069096015460ff9095169593949293919290919087565b6040805197151588526020880196909652948601939093526060850191909152608084015260a083015260c082015260e001610158565b6101936105f3565b34801561029057600080fd5b506101706107b5565b3480156102a557600080fd5b50610170601e81565b3480156102ba57600080fd5b50600354610144906001600160a01b031681565b3480156102da57600080fd5b50610193610864565b3480156102ef57600080fd5b506103036102fe366004611421565b610a57565b604051610158939291906114a6565b34801561031e57600080fd5b5061019361032d366004611421565b610f9d565b34801561033e57600080fd5b50610170662386f26fc1000081565b34801561035957600080fd5b506101447f000000000000000000000000000000000000000000000000000000000000000081565b34801561038d57600080fd5b506101706a52b7d2dcc80cd2e400000081565b3480156103ac57600080fd5b506103c06103bb36600461143a565b611245565b6040805198151589526020890197909752958701949094526060860192909252608085015260a084015260c083015260e082015261010001610158565b6001818154811061040d57600080fd5b6000918252602090912001546001600160a01b0316905081565b336000908152602081905260409020805460ff166104605760405162461bcd60e51b81526004016104579061151c565b60405180910390fd5b60008160030154116104ab5760405162461bcd60e51b8152602060048201526014602482015273139bc8199c9d5a5d1cc81d1bc81a185c9d995cdd60621b6044820152606401610457565b6003810180549060006104bd8361155f565b919050555060006104d160646101f4611399565b9050808260040160008282546104e79190611576565b90915550506040805182815242602082015233917f3124920cf24a2e7bedce16517d7c77221df59e26c302f70f69f1d678e341b96991015b60405180910390a25050565b6001546000908161053e6101f48361159f565b905061054b8160026115b3565b610556906001611576565b9250505090565b6003546001600160a01b031633146105b75760405162461bcd60e51b815260206004820152601760248201527f4f6e6c79206f776e65722063616e2077697468647261770000000000000000006044820152606401610457565b6003546040516001600160a01b03909116904780156108fc02916000818181858888f193505050501580156105f0573d6000803e3d6000fd5b50565b3360009081526020819052604090205460ff16156106495760405162461bcd60e51b81526020600482015260136024820152725472656520616c72656164792065786973747360681b6044820152606401610457565b662386f26fc1000034146106965760405162461bcd60e51b8152602060048201526014602482015273125b98dbdc9c9958dd0811551208185b5bdd5b9d60621b6044820152606401610457565b6040805160e081018252600180825260006020808401828152848601838152606086018481526080870185815260a0880186815260c089018781523388528787528a882099518a5460ff1916901515178a559451978901979097559151600280890191909155905160038801559051600487015593516005860155516006909401939093559152205460ff1661077e576001805480820182557fb10e2d527612073b26eecdfd717e6a320cf44b4afac2b0732d9fcbe2b7fa0cf60180546001600160a01b031916339081179091556000908152600260205260409020805460ff191690911790555b60405142815233907f9acab985beb5a8e9dee68b1ae2706bb0ac978d66e7160b89b4d405f097ffe5139060200160405180910390a2565b6000807f00000000000000000000000000000000000000000000000000000000000000006001600160a01b031663da0239a66040518163ffffffff1660e01b8152600401602060405180830381865afa158015610816573d6000803e3d6000fd5b505050506040513d601f19601f8201168201806040525081019061083a91906115ca565b90506a52b7d2dcc80cd2e4000000610854826127106115b3565b61085e919061159f565b91505090565b336000908152602081905260409020805460ff166108945760405162461bcd60e51b81526004016104579061151c565b600281015415806108b55750601e81600201546108b19190611576565b4210155b6108f95760405162461bcd60e51b815260206004820152601560248201527410dbdbdb191bdddb881b9bdd08199a5b9a5cda1959605a1b6044820152606401610457565b6000610908620151804261159f565b9050808260060154146109245760006005830155600682018190555b601e8260050154106109785760405162461bcd60e51b815260206004820152601d60248201527f4461696c792066657274696c697a65206c696d697420726561636865640000006044820152606401610457565b60018201805490600061098a836115e3565b90915550506005820180549060006109a1836115e3565b909155505042600283015560018201546109bd906005906115fc565b600003610a1b576003820180549060006109d6836115e3565b909155505060038201546040805191825242602083015233917f07549cf6c282b0d18031392e9c0e503c28bdc3fd3a646f70e71c30d72ae0f5d7910160405180910390a25b60018201546040805191825242602083015233917f73265a425293d3d258a62c98f57c77ab2c6cd7824e300b399fce9a251a739fb2910161051f565b600154606090819081906000819003610a945750506040805160008082526020820181815282840191825260608301909352909350909150610f96565b6000818611610aa35785610aa5565b815b905060008267ffffffffffffffff811115610ac257610ac2611610565b604051908082528060200260200182016040528015610aeb578160200160208202803683370190505b50905060008367ffffffffffffffff811115610b0957610b09611610565b604051908082528060200260200182016040528015610b32578160200160208202803683370190505b50905060005b84811015610c085760018181548110610b5357610b53611626565b9060005260206000200160009054906101000a90046001600160a01b0316838281518110610b8357610b83611626565b60200260200101906001600160a01b031690816001600160a01b03168152505060008060018381548110610bb957610bb9611626565b60009182526020808320909101546001600160a01b031683528201929092526040019020600401548251839083908110610bf557610bf5611626565b6020908102919091010152600101610b38565b5060005b610c1760018661163c565b811015610dcb5760005b6001610c2d838861163c565b610c37919061163c565b811015610dc25782610c4a826001611576565b81518110610c5a57610c5a611626565b6020026020010151838281518110610c7457610c74611626565b60200260200101511015610dba576000838281518110610c9657610c96611626565b6020026020010151905083826001610cae9190611576565b81518110610cbe57610cbe611626565b6020026020010151848381518110610cd857610cd8611626565b60209081029190910101528084610cf0846001611576565b81518110610d0057610d00611626565b6020026020010181815250506000858381518110610d2057610d20611626565b6020026020010151905085836001610d389190611576565b81518110610d4857610d48611626565b6020026020010151868481518110610d6257610d62611626565b6001600160a01b03909216602092830291909101909101528086610d87856001611576565b81518110610d9757610d97611626565b60200260200101906001600160a01b031690816001600160a01b03168152505050505b600101610c21565b50600101610c0c565b508267ffffffffffffffff811115610de557610de5611610565b604051908082528060200260200182016040528015610e0e578160200160208202803683370190505b5096508267ffffffffffffffff811115610e2a57610e2a611610565b604051908082528060200260200182016040528015610e53578160200160208202803683370190505b5095508267ffffffffffffffff811115610e6f57610e6f611610565b604051908082528060200260200182016040528015610e98578160200160208202803683370190505b50945060005b83811015610f9057828181518110610eb857610eb8611626565b6020026020010151888281518110610ed257610ed2611626565b60200260200101906001600160a01b031690816001600160a01b031681525050818181518110610f0457610f04611626565b6020026020010151878281518110610f1e57610f1e611626565b602002602001018181525050600080848381518110610f3f57610f3f611626565b60200260200101516001600160a01b03166001600160a01b0316815260200190815260200160002060010154868281518110610f7d57610f7d611626565b6020908102919091010152600101610e9e565b50505050505b9193909250565b336000908152602081905260409020805460ff16610fcd5760405162461bcd60e51b81526004016104579061151c565b81816004015410156110175760405162461bcd60e51b8152602060048201526013602482015272496e73756666696369656e7420706f696e747360681b6044820152606401610457565b600082116110675760405162461bcd60e51b815260206004820152601d60248201527f506f696e7473206d7573742062652067726561746572207468616e20300000006044820152606401610457565b600061107161052b565b905060008161108885670de0b6b3a76400006115b3565b611092919061159f565b905060007f00000000000000000000000000000000000000000000000000000000000000006001600160a01b031663da0239a66040518163ffffffff1660e01b8152600401602060405180830381865afa1580156110f4573d6000803e3d6000fd5b505050506040513d601f19601f8201168201806040525081019061111891906115ca565b9050808211156111635760405162461bcd60e51b8152602060048201526016602482015275139bdd08195b9bdd59da081d1bdad95b9cc81b19599d60521b6044820152606401610457565b84846004016000828254611177919061163c565b90915550506040516340c10f1960e01b8152336004820152602481018390527f00000000000000000000000000000000000000000000000000000000000000006001600160a01b0316906340c10f1990604401600060405180830381600087803b1580156111e457600080fd5b505af11580156111f8573d6000803e3d6000fd5b50506040805188815260208101869052428183015290513393507fbac106664789786e9447ad88f3982270e2061a36e65e191da1d7707d87e284ff92509081900360600190a25050505050565b6001600160a01b038116600090815260208181526040808320815160e081018352815460ff161580158083526001840154958301959095526002830154938201939093526003820154606082015260048201546080820152600582015460a082015260069091015460c0820152839283928392839283928392839290918391906112d3575060008260400151115b80156112ee5750601e82604001516112eb9190611576565b42105b156113125742601e83604001516113059190611576565b61130f919061163c565b90505b6000611321620151804261159f565b90506000818460c001511461133757600061133d565b8360a001515b9050600081601e1161135057600061135b565b61135b82601e61163c565b9050846000015185602001518660400151876060015188608001518887879c509c509c509c509c509c509c509c505050505050919395975091939597565b6000804244336040516020016113d493929190928352602083019190915260601b6bffffffffffffffffffffffff1916604082015260540190565b60408051601f19818403018152919052805160209091012090506113f8848461163c565b611403906001611576565b61140d90826115fc565b6114179085611576565b9150505b92915050565b60006020828403121561143357600080fd5b5035919050565b60006020828403121561144c57600080fd5b81356001600160a01b038116811461146357600080fd5b9392505050565b60008151808452602080850194506020840160005b8381101561149b5781518752958201959082019060010161147f565b509495945050505050565b606080825284519082018190526000906020906080840190828801845b828110156114e85781516001600160a01b0316845292840192908401906001016114c3565b50505083810360208501526114fd818761146a565b9150508281036040840152611512818561146a565b9695505050505050565b602080825260139082015272151c995948191bd95cc81b9bdd08195e1a5cdd606a1b604082015260600190565b634e487b7160e01b600052601160045260246000fd5b60008161156e5761156e611549565b506000190190565b8082018082111561141b5761141b611549565b634e487b7160e01b600052601260045260246000fd5b6000826115ae576115ae611589565b500490565b808202811582820484141761141b5761141b611549565b6000602082840312156115dc57600080fd5b5051919050565b6000600182016115f5576115f5611549565b5060010190565b60008261160b5761160b611589565b500690565b634e487b7160e01b600052604160045260246000fd5b634e487b7160e01b600052603260045260246000fd5b8181038181111561141b5761141b61154956fea26469706673582212207cd38db6e1b9949ec37f79b80e836924bdbd6f0698b7f213b88dcbdd3527662064736f6c63430008180033",
  "linkReferences": {},
  "deployedLinkReferences": {}
}