{
  "_format": "hh-sol-artifact-1",
  "contractName": "MagicTree",
  "sourceName": "contracts/MagicTree.sol",
  "abi": [
    {
      "inputs": [],
      "stateMutability": "nonpayable",
      "type": "constructor"
    },
    {
      "anonymous": false,
      "inputs": [
        {
          "indexed": true,
          "internalType": "address",
          "name": "owner",
          "type": "address"
        },
        {
          "indexed": false,
          "internalType": "uint256",
          "name": "points",
          "type": "uint256"
        },
        {
          "indexed": false,
          "internalType": "uint256",
          "name": "timestamp",
          "type": "uint256"
        }
      ],
      "name": "FruitDecomposed",
      "type": "event"
    },
    {
      "anonymous": false,
      "inputs": [
        {
          "indexed": true,
          "internalType": "address",
          "name": "owner",
          "type": "address"
        },
        {
          "indexed": false,
          "internalType": "uint256",
          "name": "fruitCount",
          "type": "uint256"
        },
        {
          "indexed": false,
          "internalType": "uint256",
          "name": "timestamp",
          "type": "uint256"
        }
      ],
      "name": "FruitHarvested",
      "type": "event"
    },
    {
      "anonymous": false,
      "inputs": [
        {
          "indexed": true,
          "internalType": "address",
          "name": "owner",
          "type": "address"
        },
        {
          "indexed": false,
          "internalType": "uint256",
          "name": "count",
          "type": "uint256"
        },
        {
          "indexed": false,
          "internalType": "uint256",
          "name": "timestamp",
          "type": "uint256"
        }
      ],
      "name": "TreeFertilized",
      "type": "event"
    },
    {
      "anonymous": false,
      "inputs": [
        {
          "indexed": true,
          "internalType": "address",
          "name": "owner",
          "type": "address"
        },
        {
          "indexed": false,
          "internalType": "uint256",
          "name": "timestamp",
          "type": "uint256"
        }
      ],
      "name": "TreeMinted",
      "type": "event"
    },
    {
      "inputs": [],
      "name": "COOLDOWN_TIME",
      "outputs": [
        {
          "internalType": "uint256",
          "name": "",
          "type": "uint256"
        }
      ],
      "stateMutability": "view",
      "type": "function"
    },
    {
      "inputs": [],
      "name": "FERTILIZE_FOR_FRUIT",
      "outputs": [
        {
          "internalType": "uint256",
          "name": "",
          "type": "uint256"
        }
      ],
      "stateMutability": "view",
      "type": "function"
    },
    {
      "inputs": [],
      "name": "MAX_DAILY_FERTILIZE",
      "outputs": [
        {
          "internalType": "uint256",
          "name": "",
          "type": "uint256"
        }
      ],
      "stateMutability": "view",
      "type": "function"
    },
    {
      "inputs": [],
      "name": "MINT_PRICE",
      "outputs": [
        {
          "internalType": "uint256",
          "name": "",
          "type": "uint256"
        }
      ],
      "stateMutability": "view",
      "type": "function"
    },
    {
      "inputs": [
        {
          "internalType": "uint256",
          "name": "",
          "type": "uint256"
        }
      ],
      "name": "allPlayers",
      "outputs": [
        {
          "internalType": "address",
          "name": "",
          "type": "address"
        }
      ],
      "stateMutability": "view",
      "type": "function"
    },
    {
      "inputs": [],
      "name": "fertilize",
      "outputs": [],
      "stateMutability": "nonpayable",
      "type": "function"
    },
    {
      "inputs": [],
      "name": "getBalance",
      "outputs": [
        {
          "internalType": "uint256",
          "name": "",
          "type": "uint256"
        }
      ],
      "stateMutability": "view",
      "type": "function"
    },
    {
      "inputs": [
        {
          "internalType": "uint256",
          "name": "limit",
          "type": "uint256"
        }
      ],
      "name": "getLeaderboard",
      "outputs": [
        {
          "internalType": "address[]",
          "name": "addresses",
          "type": "address[]"
        },
        {
          "internalType": "uint256[]",
          "name": "points",
          "type": "uint256[]"
        },
        {
          "internalType": "uint256[]",
          "name": "fertilizeCounts",
          "type": "uint256[]"
        }
      ],
      "stateMutability": "view",
      "type": "function"
    },
    {
      "inputs": [],
      "name": "getTotalPlayers",
      "outputs": [
        {
          "internalType": "uint256",
          "name": "",
          "type": "uint256"
        }
      ],
      "stateMutability": "view",
      "type": "function"
    },
    {
      "inputs": [
        {
          "internalType": "address",
          "name": "user",
          "type": "address"
        }
      ],
      "name": "getTreeInfo",
      "outputs": [
        {
          "internalType": "bool",
          "name": "exists",
          "type": "bool"
        },
        {
          "internalType": "uint256",
          "name": "fertilizeCount",
          "type": "uint256"
        },
        {
          "internalType": "uint256",
          "name": "lastActionTime",
          "type": "uint256"
        },
        {
          "internalType": "uint256",
          "name": "fruits",
          "type": "uint256"
        },
        {
          "internalType": "uint256",
          "name": "points",
          "type": "uint256"
        },
        {
          "internalType": "uint256",
          "name": "cooldownRemaining",
          "type": "uint256"
        },
        {
          "internalType": "uint256",
          "name": "dailyFertilizeCount",
          "type": "uint256"
        },
        {
          "internalType": "uint256",
          "name": "dailyFertilizeRemaining",
          "type": "uint256"
        }
      ],
      "stateMutability": "view",
      "type": "function"
    },
    {
      "inputs": [],
      "name": "harvestFruit",
      "outputs": [],
      "stateMutability": "nonpayable",
      "type": "function"
    },
    {
      "inputs": [],
      "name": "mintTree",
      "outputs": [],
      "stateMutability": "payable",
      "type": "function"
    },
    {
      "inputs": [],
      "name": "owner",
      "outputs": [
        {
          "internalType": "address",
          "name": "",
          "type": "address"
        }
      ],
      "stateMutability": "view",
      "type": "function"
    },
    {
      "inputs": [
        {
          "internalType": "address",
          "name": "",
          "type": "address"
        }
      ],
      "name": "trees",
      "outputs": [
        {
          "internalType": "bool",
          "name": "exists",
          "type": "bool"
        },
        {
          "internalType": "uint256",
          "name": "fertilizeCount",
          "type": "uint256"
        },
        {
          "internalType": "uint256",
          "name": "lastActionTime",
          "type": "uint256"
        },
        {
          "internalType": "uint256",
          "name": "fruits",
          "type": "uint256"
        },
        {
          "internalType": "uint256",
          "name": "points",
          "type": "uint256"
        },
        {
          "internalType": "uint256",
          "name": "dailyFertilizeCount",
          "type": "uint256"
        },
        {
          "internalType": "uint256",
          "name": "lastFertilizeDate",
          "type": "uint256"
        }
      ],
      "stateMutability": "view",
      "type": "function"
    },
    {
      "inputs": [],
      "name": "withdraw",
      "outputs": [],
      "stateMutability": "nonpayable",
      "type": "function"
    }
  ],
  "bytecode": "0x608060405234801561001057600080fd5b50600380546001600160a01b0319163317905561124e806100326000396000f3fe6080604052600436106100e85760003560e01c806361c05ab61161008a578063977745eb11610059578063977745eb14610282578063a34b46fe14610297578063c002d23d146102c6578063ed85b9f5146102e157600080fd5b806361c05ab6146102305780637d2632451461023857806381a9fdf81461024d5780638da5cb5b1461026257600080fd5b80633ccfd60b116100c65780633ccfd60b1461015e5780634529cae7146101735780634f37ba99146101885780635005d3b61461019d57600080fd5b80630544ce5e146100ed57806312065fe01461012a5780632f249cbd14610147575b600080fd5b3480156100f957600080fd5b5061010d610108366004611049565b61033e565b6040516001600160a01b0390911681526020015b60405180910390f35b34801561013657600080fd5b50475b604051908152602001610121565b34801561015357600080fd5b5061015c610368565b005b34801561016a57600080fd5b5061015c61048e565b34801561017f57600080fd5b50600154610139565b34801561019457600080fd5b50610139600581565b3480156101a957600080fd5b506101f96101b8366004611062565b600060208190529081526040902080546001820154600283015460038401546004850154600586015460069096015460ff9095169593949293919290919087565b6040805197151588526020880196909652948601939093526060850191909152608084015260a083015260c082015260e001610121565b61015c610524565b34801561024457600080fd5b50610139603c81565b34801561025957600080fd5b50610139601e81565b34801561026e57600080fd5b5060035461010d906001600160a01b031681565b34801561028e57600080fd5b5061015c6106e6565b3480156102a357600080fd5b506102b76102b2366004611049565b6108ff565b604051610121939291906110cd565b3480156102d257600080fd5b50610139662386f26fc1000081565b3480156102ed57600080fd5b506103016102fc366004611062565b610e6d565b6040805198151589526020890197909752958701949094526060860192909252608085015260a084015260c083015260e082015261010001610121565b6001818154811061034e57600080fd5b6000918252602090912001546001600160a01b0316905081565b336000908152602081905260409020805460ff166103c35760405162461bcd60e51b8152602060048201526013602482015272151c995948191bd95cc81b9bdd08195e1a5cdd606a1b60448201526064015b60405180910390fd5b600081600301541161040e5760405162461bcd60e51b8152602060048201526014602482015273139bc8199c9d5a5d1cc81d1bc81a185c9d995cdd60621b60448201526064016103ba565b60038101805490600061042083611158565b9190505550600061043460646101f4610fc1565b90508082600401600082825461044a919061116f565b90915550506040805182815242602082015233917f3124920cf24a2e7bedce16517d7c77221df59e26c302f70f69f1d678e341b96991015b60405180910390a25050565b6003546001600160a01b031633146104e85760405162461bcd60e51b815260206004820152601760248201527f4f6e6c79206f776e65722063616e20776974686472617700000000000000000060448201526064016103ba565b6003546040516001600160a01b03909116904780156108fc02916000818181858888f19350505050158015610521573d6000803e3d6000fd5b50565b3360009081526020819052604090205460ff161561057a5760405162461bcd60e51b81526020600482015260136024820152725472656520616c72656164792065786973747360681b60448201526064016103ba565b662386f26fc1000034146105c75760405162461bcd60e51b8152602060048201526014602482015273125b98dbdc9c9958dd0811551208185b5bdd5b9d60621b60448201526064016103ba565b6040805160e081018252600180825260006020808401828152848601838152606086018481526080870185815260a0880186815260c089018781523388528787528a882099518a5460ff1916901515178a559451978901979097559151600280890191909155905160038801559051600487015593516005860155516006909401939093559152205460ff166106af576001805480820182557fb10e2d527612073b26eecdfd717e6a320cf44b4afac2b0732d9fcbe2b7fa0cf60180546001600160a01b031916339081179091556000908152600260205260409020805460ff191690911790555b60405142815233907f9acab985beb5a8e9dee68b1ae2706bb0ac978d66e7160b89b4d405f097ffe5139060200160405180910390a2565b336000908152602081905260409020805460ff1661073c5760405162461bcd60e51b8152602060048201526013602482015272151c995948191bd95cc81b9bdd08195e1a5cdd606a1b60448201526064016103ba565b6002810154158061075d5750603c8160020154610759919061116f565b4210155b6107a15760405162461bcd60e51b815260206004820152601560248201527410dbdbdb191bdddb881b9bdd08199a5b9a5cda1959605a1b60448201526064016103ba565b60006107b06201518042611198565b9050808260060154146107cc5760006005830155600682018190555b601e8260050154106108205760405162461bcd60e51b815260206004820152601d60248201527f4461696c792066657274696c697a65206c696d6974207265616368656400000060448201526064016103ba565b600182018054906000610832836111ac565b9091555050600582018054906000610849836111ac565b90915550504260028301556001820154610865906005906111c5565b6000036108c35760038201805490600061087e836111ac565b909155505060038201546040805191825242602083015233917f07549cf6c282b0d18031392e9c0e503c28bdc3fd3a646f70e71c30d72ae0f5d7910160405180910390a25b60018201546040805191825242602083015233917f73265a425293d3d258a62c98f57c77ab2c6cd7824e300b399fce9a251a739fb29101610482565b60015460609081908190600081900361093c5750506040805160008082526020820181815282840191825260608301909352909350909150610e66565b600081861161094b578561094d565b815b905060008267ffffffffffffffff81111561096a5761096a6111d9565b604051908082528060200260200182016040528015610993578160200160208202803683370190505b50905060008367ffffffffffffffff8111156109b1576109b16111d9565b6040519080825280602002602001820160405280156109da578160200160208202803683370190505b50905060005b84811015610aba57600181815481106109fb576109fb6111ef565b9060005260206000200160009054906101000a90046001600160a01b0316838281518110610a2b57610a2b6111ef565b60200260200101906001600160a01b031690816001600160a01b03168152505060008060018381548110610a6157610a616111ef565b60009182526020808320909101546001600160a01b031683528201929092526040019020600401548251839083908110610a9d57610a9d6111ef565b602090810291909101015280610ab2816111ac565b9150506109e0565b5060005b610ac9600186611205565b811015610c915760005b6001610adf8388611205565b610ae99190611205565b811015610c7e5782610afc82600161116f565b81518110610b0c57610b0c6111ef565b6020026020010151838281518110610b2657610b266111ef565b60200260200101511015610c6c576000838281518110610b4857610b486111ef565b6020026020010151905083826001610b60919061116f565b81518110610b7057610b706111ef565b6020026020010151848381518110610b8a57610b8a6111ef565b60209081029190910101528084610ba284600161116f565b81518110610bb257610bb26111ef565b6020026020010181815250506000858381518110610bd257610bd26111ef565b6020026020010151905085836001610bea919061116f565b81518110610bfa57610bfa6111ef565b6020026020010151868481518110610c1457610c146111ef565b6001600160a01b03909216602092830291909101909101528086610c3985600161116f565b81518110610c4957610c496111ef565b60200260200101906001600160a01b031690816001600160a01b03168152505050505b80610c76816111ac565b915050610ad3565b5080610c89816111ac565b915050610abe565b508267ffffffffffffffff811115610cab57610cab6111d9565b604051908082528060200260200182016040528015610cd4578160200160208202803683370190505b5096508267ffffffffffffffff811115610cf057610cf06111d9565b604051908082528060200260200182016040528015610d19578160200160208202803683370190505b5095508267ffffffffffffffff811115610d3557610d356111d9565b604051908082528060200260200182016040528015610d5e578160200160208202803683370190505b50945060005b83811015610e6057828181518110610d7e57610d7e6111ef565b6020026020010151888281518110610d9857610d986111ef565b60200260200101906001600160a01b031690816001600160a01b031681525050818181518110610dca57610dca6111ef565b6020026020010151878281518110610de457610de46111ef565b602002602001018181525050600080848381518110610e0557610e056111ef565b60200260200101516001600160a01b03166001600160a01b0316815260200190815260200160002060010154868281518110610e4357610e436111ef565b602090810291909101015280610e58816111ac565b915050610d64565b50505050505b9193909250565b6001600160a01b038116600090815260208181526040808320815160e081018352815460ff161580158083526001840154958301959095526002830154938201939093526003820154606082015260048201546080820152600582015460a082015260069091015460c082015283928392839283928392839283929091839190610efb575060008260400151115b8015610f165750603c8260400151610f13919061116f565b42105b15610f3a5742603c8360400151610f2d919061116f565b610f379190611205565b90505b6000610f496201518042611198565b90506000818460c0015114610f5f576000610f65565b8360a001515b9050600081601e11610f78576000610f83565b610f8382601e611205565b9050846000015185602001518660400151876060015188608001518887879c509c509c509c509c509c509c509c505050505050919395975091939597565b600080424433604051602001610ffc93929190928352602083019190915260601b6bffffffffffffffffffffffff1916604082015260540190565b60408051601f19818403018152919052805160209091012090506110208484611205565b61102b90600161116f565b61103590826111c5565b61103f908561116f565b9150505b92915050565b60006020828403121561105b57600080fd5b5035919050565b60006020828403121561107457600080fd5b81356001600160a01b038116811461108b57600080fd5b9392505050565b600081518084526020808501945080840160005b838110156110c2578151875295820195908201906001016110a6565b509495945050505050565b606080825284519082018190526000906020906080840190828801845b8281101561110f5781516001600160a01b0316845292840192908401906001016110ea565b505050838103828501526111238187611092565b91505082810360408401526111388185611092565b9695505050505050565b634e487b7160e01b600052601160045260246000fd5b60008161116757611167611142565b506000190190565b8082018082111561104357611043611142565b634e487b7160e01b600052601260045260246000fd5b6000826111a7576111a7611182565b500490565b6000600182016111be576111be611142565b5060010190565b6000826111d4576111d4611182565b500690565b634e487b7160e01b600052604160045260246000fd5b634e487b7160e01b600052603260045260246000fd5b818103818111156110435761104361114256fea2646970667358221220c028f95ff1b147e170a9f13e75e4c56bd418e44787d3eab9564c219f2398818264736f6c63430008140033",
  "linkReferences": {},
  "deployedLinkReferences": {}
}