{
  "_format": "hh-sol-artifact-1",
  "contractName": "MagicToken",
  "sourceName": "contracts/MagicToken.sol",
  "abi": [
    {
      "inputs": [],
      "stateMutability": "nonpayable",
      "type": "constructor"
    },
    {
      "inputs": [
        {
          "internalType": "address",
          "name": "spender",
          "type": "address"
        },
        {
          "internalType": "uint256",
          "name": "allowance",
          "type": "uint256"
        },
        {
          "internalType": "uint256",
          "name": "needed",
          "type": "uint256"
        }
      ],
      "name": "ERC20InsufficientAllowance",
      "type": "error"
    },
    {
      "inputs": [
        {
          "internalType": "address",
          "name": "sender",
          "type": "address"
        },
        {
          "internalType": "uint256",
          "name": "balance",
          "type": "uint256"
        },
        {
          "internalType": "uint256",
          "name": "needed",
          "type": "uint256"
        }
      ],
      "name": "ERC20InsufficientBalance",
      "type": "error"
    },
    {
      "inputs": [
        {
          "internalType": "address",
          "name": "approver",
          "type": "address"
        }
      ],
      "name": "ERC20InvalidApprover",
      "type": "error"
    },
    {
      "inputs": [
        {
          "internalType": "address",
          "name": "receiver",
          "type": "address"
        }
      ],
      "name": "ERC20InvalidReceiver",
      "type": "error"
    },
    {
      "inputs": [
        {
          "internalType": "address",
          "name": "sender",
          "type": "address"
        }
      ],
      "name": "ERC20InvalidSender",
      "type": "error"
    },
    {
      "inputs": [
        {
          "internalType": "address",
          "name": "spender",
          "type": "address"
        }
      ],
      "name": "ERC20InvalidSpender",
      "type": "error"
    },
    {
      "inputs": [
        {
          "internalType": "address",
          "name": "owner",
          "type": "address"
        }
      ],
      "name": "OwnableInvalidOwner",
      "type": "error"
    },
    {
      "inputs": [
        {
          "internalType": "address",
          "name": "account",
          "type": "address"
        }
      ],
      "name": "OwnableUnauthorizedAccount",
      "type": "error"
    },
    {
      "anonymous": false,
      "inputs": [
        {
          "indexed": true,
          "internalType": "address",
          "name": "owner",
          "type": "address"
        },
        {
          "indexed": true,
          "internalType": "address",
          "name": "spender",
          "type": "address"
        },
        {
          "indexed": false,
          "internalType": "uint256",
          "name": "value",
          "type": "uint256"
        }
      ],
      "name": "Approval",
      "type": "event"
    },
    {
      "anonymous": false,
      "inputs": [
        {
          "indexed": true,
          "internalType": "address",
          "name": "previousOwner",
          "type": "address"
        },
        {
          "indexed": true,
          "internalType": "address",
          "name": "newOwner",
          "type": "address"
        }
      ],
      "name": "OwnershipTransferred",
      "type": "event"
    },
    {
      "anonymous": false,
      "inputs": [
        {
          "indexed": true,
          "internalType": "address",
          "name": "from",
          "type": "address"
        },
        {
          "indexed": true,
          "internalType": "address",
          "name": "to",
          "type": "address"
        },
        {
          "indexed": false,
          "internalType": "uint256",
          "name": "value",
          "type": "uint256"
        }
      ],
      "name": "Transfer",
      "type": "event"
    },
    {
      "inputs": [],
      "name": "MAX_SUPPLY",
      "outputs": [
        {
          "internalType": "uint256",
          "name": "",
          "type": "uint256"
        }
      ],
      "stateMutability": "view",
      "type": "function"
    },
    {
      "inputs": [
        {
          "internalType": "address",
          "name": "owner",
          "type": "address"
        },
        {
          "internalType": "address",
          "name": "spender",
          "type": "address"
        }
      ],
      "name": "allowance",
      "outputs": [
        {
          "internalType": "uint256",
          "name": "",
          "type": "uint256"
        }
      ],
      "stateMutability": "view",
      "type": "function"
    },
    {
      "inputs": [
        {
          "internalType": "address",
          "name": "spender",
          "type": "address"
        },
        {
          "internalType": "uint256",
          "name": "value",
          "type": "uint256"
        }
      ],
      "name": "approve",
      "outputs": [
        {
          "internalType": "bool",
          "name": "",
          "type": "bool"
        }
      ],
      "stateMutability": "nonpayable",
      "type": "function"
    },
    {
      "inputs": [
        {
          "internalType": "address",
          "name": "account",
          "type": "address"
        }
      ],
      "name": "balanceOf",
      "outputs": [
        {
          "internalType": "uint256",
          "name": "",
          "type": "uint256"
        }
      ],
      "stateMutability": "view",
      "type": "function"
    },
    {
      "inputs": [],
      "name": "decimals",
      "outputs": [
        {
          "internalType": "uint8",
          "name": "",
          "type": "uint8"
        }
      ],
      "stateMutability": "view",
      "type": "function"
    },
    {
      "inputs": [
        {
          "internalType": "address",
          "name": "to",
          "type": "address"
        },
        {
          "internalType": "uint256",
          "name": "amount",
          "type": "uint256"
        }
      ],
      "name": "mint",
      "outputs": [],
      "stateMutability": "nonpayable",
      "type": "function"
    },
    {
      "inputs": [],
      "name": "minter",
      "outputs": [
        {
          "internalType": "address",
          "name": "",
          "type": "address"
        }
      ],
      "stateMutability": "view",
      "type": "function"
    },
    {
      "inputs": [],
      "name": "minterSet",
      "outputs": [
        {
          "internalType": "bool",
          "name": "",
          "type": "bool"
        }
      ],
      "stateMutability": "view",
      "type": "function"
    },
    {
      "inputs": [],
      "name": "name",
      "outputs": [
        {
          "internalType": "string",
          "name": "",
          "type": "string"
        }
      ],
      "stateMutability": "view",
      "type": "function"
    },
    {
      "inputs": [],
      "name": "owner",
      "outputs": [
        {
          "internalType": "address",
          "name": "",
          "type": "address"
        }
      ],
      "stateMutability": "view",
      "type": "function"
    },
    {
      "inputs": [],
      "name": "remainingSupply",
      "outputs": [
        {
          "internalType": "uint256",
          "name": "",
          "type": "uint256"
        }
      ],
      "stateMutability": "view",
      "type": "function"
    },
    {
      "inputs": [],
      "name": "renounceOwnership",
      "outputs": [],
      "stateMutability": "nonpayable",
      "type": "function"
    },
    {
      "inputs": [
        {
          "internalType": "address",
          "name": "_minter",
          "type": "address"
        }
      ],
      "name": "setMinter",
      "outputs": [],
      "stateMutability": "nonpayable",
      "type": "function"
    },
    {
      "inputs": [],
      "name": "symbol",
      "outputs": [
        {
          "internalType": "string",
          "name": "",
          "type": "string"
        }
      ],
      "stateMutability": "view",
      "type": "function"
    },
    {
      "inputs": [],
      "name": "totalSupply",
      "outputs": [
        {
          "internalType": "uint256",
          "name": "",
          "type": "uint256"
        }
      ],
      "stateMutability": "view",
      "type": "function"
    },
    {
      "inputs": [
        {
          "internalType": "address",
          "name": "to",
          "type": "address"
        },
        {
          "internalType": "uint256",
          "name": "value",
          "type": "uint256"
        }
      ],
      "name": "transfer",
      "outputs": [
        {
          "internalType": "bool",
          "name": "",
          "type": "bool"
        }
      ],
      "stateMutability": "nonpayable",
      "type": "function"
    },
    {
      "inputs": [
        {
          "internalType": "address",
          "name": "from",
          "type": "address"
        },
        {
          "internalType": "address",
          "name": "to",
          "type": "address"
        },
        {
          "internalType": "uint256",
          "name": "value",
          "type": "uint256"
        }
      ],
      "name": "transferFrom",
      "outputs": [
        {
          "internalType": "bool",
          "name": "",
          "type": "bool"
        }
      ],
      "stateMutability": "nonpayable",
      "type": "function"
    },
    {
      "inputs": [
        {
          "internalType": "address",
          "name": "newOwner",
          "type": "address"
        }
      ],
      "name": "transferOwnership",
      "outputs": [],
      "stateMutability": "nonpayable",
      "type": "function"
    }
  ],
  "bytecode": "0x608060405234801561000f575f5ffd5b50336040518060400160405280601081526020016f26b0b3b4b1902a3932b2902a37b5b2b760811b8152506040518060400160405280600381526020016213551560ea1b8152508160039081610065919061019a565b506004610072828261019a565b5050506001600160a01b0381166100a257604051631e4fbdf760e01b81525f600482015260240160405180910390fd5b6100ab816100b1565b50610254565b600580546001600160a01b038381166001600160a01b0319831681179093556040519116919082907f8be0079c531659141344cd1fd0a4f28419497f9722a3daafe3b4186f6b6457e0905f90a35050565b634e487b7160e01b5f52604160045260245ffd5b600181811c9082168061012a57607f821691505b60208210810361014857634e487b7160e01b5f52602260045260245ffd5b50919050565b601f82111561019557805f5260205f20601f840160051c810160208510156101735750805b601f840160051c820191505b81811015610192575f815560010161017f565b50505b505050565b81516001600160401b038111156101b3576101b3610102565b6101c7816101c18454610116565b8461014e565b6020601f8211600181146101f9575f83156101e25750848201515b5f19600385901b1c1916600184901b178455610192565b5f84815260208120601f198516915b828110156102285787850151825560209485019460019092019101610208565b508482101561024557868401515f19600387901b60f8161c191681555b50505050600190811b01905550565b610b2f806102615f395ff3fe608060405234801561000f575f5ffd5b506004361061012f575f3560e01c8063715018a6116100ad578063d804415f1161007d578063dd62ed3e11610063578063dd62ed3e14610272578063f2fde38b146102aa578063fca3b5aa146102bd575f5ffd5b8063d804415f14610256578063da0239a61461026a575f5ffd5b8063715018a6146102225780638da5cb5b1461022a57806395d89b411461023b578063a9059cbb14610243575f5ffd5b806323b872dd1161010257806332cb6b0c116100e857806332cb6b0c146101d357806340c10f19146101e557806370a08231146101fa575f5ffd5b806323b872dd146101b1578063313ce567146101c4575f5ffd5b806306fdde03146101335780630754617214610151578063095ea7b31461017c57806318160ddd1461019f575b5f5ffd5b61013b6102d0565b60405161014891906109ad565b60405180910390f35b600654610164906001600160a01b031681565b6040516001600160a01b039091168152602001610148565b61018f61018a3660046109fd565b610360565b6040519015158152602001610148565b6002545b604051908152602001610148565b61018f6101bf366004610a25565b610379565b60405160128152602001610148565b6101a36a52b7d2dcc80cd2e400000081565b6101f86101f33660046109fd565b61039c565b005b6101a3610208366004610a5f565b6001600160a01b03165f9081526020819052604090205490565b6101f8610477565b6005546001600160a01b0316610164565b61013b61048a565b61018f6102513660046109fd565b610499565b60065461018f90600160a01b900460ff1681565b6101a36104a6565b6101a3610280366004610a7f565b6001600160a01b039182165f90815260016020908152604080832093909416825291909152205490565b6101f86102b8366004610a5f565b6104ca565b6101f86102cb366004610a5f565b610507565b6060600380546102df90610ab0565b80601f016020809104026020016040519081016040528092919081815260200182805461030b90610ab0565b80156103565780601f1061032d57610100808354040283529160200191610356565b820191905f5260205f20905b81548152906001019060200180831161033957829003601f168201915b5050505050905090565b5f3361036d818585610600565b60019150505b92915050565b5f33610386858285610612565b61039185858561068e565b506001949350505050565b6006546001600160a01b031633146103fb5760405162461bcd60e51b815260206004820152601460248201527f4f6e6c79206d696e7465722063616e206d696e7400000000000000000000000060448201526064015b60405180910390fd5b6a52b7d2dcc80cd2e40000008161041160025490565b61041b9190610afc565b11156104695760405162461bcd60e51b815260206004820152601260248201527f45786365656473206d617820737570706c79000000000000000000000000000060448201526064016103f2565b61047382826106eb565b5050565b61047f61071f565b6104885f61074c565b565b6060600480546102df90610ab0565b5f3361036d81858561068e565b5f6104b060025490565b6104c5906a52b7d2dcc80cd2e4000000610b0f565b905090565b6104d261071f565b6001600160a01b0381166104fb57604051631e4fbdf760e01b81525f60048201526024016103f2565b6105048161074c565b50565b61050f61071f565b600654600160a01b900460ff16156105695760405162461bcd60e51b815260206004820152601260248201527f4d696e74657220616c726561647920736574000000000000000000000000000060448201526064016103f2565b6001600160a01b0381166105bf5760405162461bcd60e51b815260206004820152601660248201527f496e76616c6964206d696e74657220616464726573730000000000000000000060448201526064016103f2565b600680547fffffffffffffffffffffff000000000000000000000000000000000000000000166001600160a01b03831617600160a01b179055610504610477565b61060d83838360016107b5565b505050565b6001600160a01b038381165f908152600160209081526040808320938616835292905220545f19811015610688578181101561067a57604051637dc7a0d960e11b81526001600160a01b038416600482015260248101829052604481018390526064016103f2565b61068884848484035f6107b5565b50505050565b6001600160a01b0383166106b757604051634b637e8f60e11b81525f60048201526024016103f2565b6001600160a01b0382166106e05760405163ec442f0560e01b81525f60048201526024016103f2565b61060d838383610887565b6001600160a01b0382166107145760405163ec442f0560e01b81525f60048201526024016103f2565b6104735f8383610887565b6005546001600160a01b031633146104885760405163118cdaa760e01b81523360048201526024016103f2565b600580546001600160a01b038381167fffffffffffffffffffffffff0000000000000000000000000000000000000000831681179093556040519116919082907f8be0079c531659141344cd1fd0a4f28419497f9722a3daafe3b4186f6b6457e0905f90a35050565b6001600160a01b0384166107de5760405163e602df0560e01b81525f60048201526024016103f2565b6001600160a01b03831661080757604051634a1406b160e11b81525f60048201526024016103f2565b6001600160a01b038085165f908152600160209081526040808320938716835292905220829055801561068857826001600160a01b0316846001600160a01b03167f8c5be1e5ebec7d5bd14f71427d1e84f3dd0314c0f7b2291e5b200ac8c7c3b9258460405161087991815260200190565b60405180910390a350505050565b6001600160a01b0383166108b1578060025f8282546108a69190610afc565b909155506109219050565b6001600160a01b0383165f90815260208190526040902054818110156109035760405163391434e360e21b81526001600160a01b038516600482015260248101829052604481018390526064016103f2565b6001600160a01b0384165f9081526020819052604090209082900390555b6001600160a01b03821661093d5760028054829003905561095b565b6001600160a01b0382165f9081526020819052604090208054820190555b816001600160a01b0316836001600160a01b03167fddf252ad1be2c89b69c2b068fc378daa952ba7f163c4a11628f55a4df523b3ef836040516109a091815260200190565b60405180910390a3505050565b602081525f82518060208401528060208501604085015e5f604082850101526040601f19601f83011684010191505092915050565b80356001600160a01b03811681146109f8575f5ffd5b919050565b5f5f60408385031215610a0e575f5ffd5b610a17836109e2565b946020939093013593505050565b5f5f5f60608486031215610a37575f5ffd5b610a40846109e2565b9250610a4e602085016109e2565b929592945050506040919091013590565b5f60208284031215610a6f575f5ffd5b610a78826109e2565b9392505050565b5f5f60408385031215610a90575f5ffd5b610a99836109e2565b9150610aa7602084016109e2565b90509250929050565b600181811c90821680610ac457607f821691505b602082108103610ae257634e487b7160e01b5f52602260045260245ffd5b50919050565b634e487b7160e01b5f52601160045260245ffd5b8082018082111561037357610373610ae8565b8181038181111561037357610373610ae856fea164736f6c634300081b000a",
  "linkReferences": {},
  "deployedLinkReferences": {}
}